:100000004DC071C070C06FC06EC06DC06CC06BC0A1
:100010006AC069C068C067C066C065C0ACC363C061
:1000200062C061C060C0F1C300002D002400270041
:100030002A0000002E00250028002B0000000000F0
:1000400000000000000304000000000000000000A9
:10005000000000000000000000002C00230026002B
:10006000290004040404040404040202020202023B
:10007000020203030303030303010101010301025D
:1000800004081020408001020408102040808001F4
:1000900002040810200102040840270811241FBE92
:1000A000CFEFD2E0DEBFCDBF11E0A0E0B1E0E4E3EE
:1000B000F1E102C005900D92A033B107D9F722E01B
:1000C000A0E3B1E001C01D92A431B207E1F710E056
:1000D000CEE4D0E003C02197FE0124D8CD34D1076F
:1000E000D1F7B1D425C88CCFE091D801F091D901D6
:1000F000309729F01092CF011092CE010994089503
:10010000CF93DF93AC01E091D601F091D701309706
:10011000F1F09091D1018091D0019817C0F090E05A
:10012000292F30E02617370754F4D901AE55BE4FBA
:10013000240F351FE90128812C939F5FF1CF109286
:10014000D1016093D001CB01DF91CF910994DF9170
:10015000CF9108953FB7F8948091C7019091C8015D
:10016000A091C901B091CA0126B5A89B05C02F3F37
:1001700019F00196A11DB11D3FBFBA2FA92F982FCD
:100180008827BC01CD01620F711D811D911D43E0C7
:10019000660F771F881F991F4A95D1F708952FB7CB
:1001A000F8946091C3017091C4018091C501909150
:1001B000C6012FBF08950895E091D1018091D0012B
:1001C000E81730F4F0E0EE55FE4F808190E008959E
:1001D0008FEF9FEF08959091D1018091D0012FEF83
:1001E0003FEF981748F4E92FF0E0EE55FE4F2081DD
:1001F00030E09F5F9093D101C90108958091D001B3
:100200009091D101891B990B089585ED8093BC00D5
:100210008091BC0084FDFCCF1092CD010895209107
:100220005B01260F3327331F21323105ECF4209177
:10023000CD01FC0190E080E0243069F082E0089577
:10024000A0915B012191AC01455C5E4FA40FB52FDD
:10025000B11D2C930196861798F380915B01680F6E
:1002600060935B0180E0089581E00895CF93DF9370
:10027000CB01EA01642FD3DFCE01DF91CF91089546
:10028000CF93DF931F92CDB7DEB7698361E0CE01D4
:100290000196C5DF81E090E00F90DF91CF91089546
:1002A000CF92DF92EF92FF92E0913A01E051E9376D
:1002B00008F087C1F0E0E25AFE4F099485C181C180
:1002C00080C17FC17EC17DC17CC17BC17AC179C142
:1002D00078C177C176C175C174C173C172C171C073
:1002E00075C079C07DC06DC16CC16BC16AC169C187
:1002F00068C167C166C165C164C163C176C07AC0A7
:1003000086C098C0A8C05DC1ADC0B1C05AC159C1B6
:1003100058C157C156C155C154C153C1C8C051C1BC
:1003200050C14FC14EC14DC14CC14BC14AC149C161
:1003300048C147C146C145C144C143C1BDC0C7C092
:1003400036C0CAC0CFC0D2C0D6C0D8C0DCC039C148
:1003500038C137C136C135C134C133C132C1D6C04D
:10036000DAC0DEC0E2C02DC12CC12BC12AC129C117
:1003700028C127C126C125C124C123C1DBC0DFC0DC
:10038000EBC0EDC0F9C0FBC0FDC0FCC0FDC001C1A9
:1003900009C10BC116C115C114C113C10FC1F2C0EF
:1003A00010C10FC10EC10DC10CC10BC1EBC02CEDB2
:1003B00035E0622F8AED91E0FF90EF90DF90CF90D3
:1003C0005FCF2091FA013091FB01F3CF2091FC0126
:1003D0003091FD01EECF2091FE013091FF01E9CF78
:1003E0002091000230910102E4CF2091E801309188
:1003F000E901DFCF2091F8013091F9012F5F3F4FE4
:1004000081E090E09093F7018093F601D2CFEAE08B
:10041000F1E082E091E030E020E0220F331F5291C2
:1004200042914130510511F42F5F3F4F8E179F07C6
:10043000A1F7BFCFEAE0F2E030E020E0220F331F67
:1004400092918291019711F42F5F3F4F42E0E23089
:10045000F407A1F7AECF2091F8013091F9012F5F99
:100460003F4FA7CF2091000130910101A2CF809191
:10047000EE019091EF012FEF30E0892B09F499CF35
:10048000C090EA01D090EB01E090EC01F090ED011A
:1004900086DEA7019601261B370B480B590BCA01B4
:1004A000B9012DE730E040E050E006D682CF209140
:1004B000F6013091F7017DCF20913801309139015B
:1004C0002F5F3F4F309339012093380172CF209135
:1004D0000A0230910B026DCF20910E0130910F0175
:1004E000332767CF80910F01282F63CF20910C0114
:1004F00030910D01F5CF80910D01F6CF20910A01C9
:1005000030910B01EDCF80910B01EECF20913001A6
:10051000309131014ECF209132013091330149CFDA
:10052000209134013091350144CF20913601309132
:1005300037013FCF2091100230911102D1CF20918D
:100540001002309111024091120250911302232F98
:10055000342F452F5527C4CF209112022ACF209146
:100560001002309111024091120250911302252F76
:100570003327442755271DCF2CED30E01ACF25E037
:1005800030E017CF20E015CF20910C0230910D0202
:10059000A7CF20910C0230910D0240910E02509194
:1005A0000F02D5CF20910E0204CF20910C02309182
:1005B0000D0240910E0250910F02D9CF2EEE30E085
:1005C000F8CE28EE30E0F5CE25E130E0F2CECF9344
:1005D000DF938130910561F49091D0018091D10138
:1005E000981731F18AED91E0F6DD80933A01F4CF6E
:1005F0000297F1F48AED91E0EEDDEC019093310188
:10060000809330018AED91E0E6DD90933301809391
:100610003201C0933A019E01215231092430310543
:1006200050F4220F331FF901E650FE4F918380836F
:10063000DF91CF910895E697D9F7909301018093C8
:100640000001F6CF87FF04C08F778830D0F48F5E2B
:1006500090E0FC01E258FF4F2491FC01EE59FF4F5E
:10066000E491EE2381F0F0E0EE0FFF1FE85AFF4F18
:10067000A591B491EC91E22381E090E031F480E027
:1006800008958FEFE5CF80E090E0089587FF04C0E4
:100690008F77883058F58F5E90E0FC01E45CFF4F67
:1006A0003491FC01E258FF4F2491FC01EE59FF4FB9
:1006B000E491EE23D1F0332339F03330C9F4809143
:1006C00080008F7780938000F0E0EE0FFF1FEE5CDC
:1006D000FF4FA591B4918FB7611110C0F8949C9110
:1006E000E22FE095E923EC938FBF08958FEFD4CFED
:1006F000343051F7809180008F7DE4CFF894EC91F5
:10070000E22BF1CFCF93DF9387FF04C08F77883040
:1007100048F58F5E90E0FC01E258FF4F24918E591E
:100720009F4FFC0184918823D1F090E0880F991F9E
:10073000FC01E85DFF4FA591B491FC01EE5CFF4F19
:10074000C591D491611110C09FB7F8948C91E22F9C
:10075000E0958E238C932881E223E8839FBFDF916D
:10076000CF9108958FEFD6CF8FB7F894EC91E22B0D
:10077000EC938FBFF4CF1F920F920FB60F921124FC
:100780002F933F938F939F93AF93BF938091C30118
:100790009091C401A091C501B091C6013091C201F0
:1007A00026E0230F2D3768F129E8230F0396A11DBA
:1007B000B11D2093C2018093C3019093C401A09303
:1007C000C501B093C6018091C7019091C801A09165
:1007D000C901B091CA010196A11DB11D8093C70145
:1007E0009093C801A093C901B093CA01BF91AF9182
:1007F0009F918F913F912F910F900FBE0F901F905F
:1008000018950296A11DB11DD4CF1F920F920FB65D
:100810000F9211242F933F934F935F936F937F9386
:100820008F939F93AF93BF93EF93FF938091B90002
:10083000887F803609F449C0E8F5883209F4A6C0FB
:1008400018F5803109F49AC0B8F4882309F4F8C087
:10085000883009F493C0FF91EF91BF91AF919F91C0
:100860008F917F916F915F914F913F912F910F9059
:100870000FBE0F901F901895883109F487C0803201
:1008800051F780937E0114C0803409F49CC040F479
:100890008033B9F38833F9F680937E0185ECAFC0DD
:1008A000803509F484C0883509F495C0883499F6F8
:1008B000ACDCD1CF883909F48CC038F5883729F001
:1008C00050F4883611F0803731F683E08093CD0103
:1008D00010927D0157C0883809F47BC0803919F027
:1008E000803809F0B8CF80917D01803208F071C066
:1008F000E0917D0181E08E0F80937D018091BB00AE
:10090000F0E0E35AFE4F80833DC0803B39F0E0F4D5
:10091000803A09F479C0883A09F09DCF84E0809349
:10092000CD0110925C0110925B01E091D401F09135
:10093000D501099580915B0181110FC081E0809301
:100940005B0110923B0109C0803C09F4A7CF883CB1
:1009500009F4A4CF883B09F07ECFE0915C0181E0EF
:100960008E0F80935C01F0E0E55CFE4F8081809308
:10097000BB0090915C0180915B0129C08091A10135
:100980008093BB0085EC8093BC0065CF9091A00163
:1009900080919F01981758F5E091A00181E08E0F9A
:1009A0008093A001F0E0E158FE4F8081E9CFE09113
:1009B000A00181E08E0F8093A0018091BB00F0E048
:1009C000E158FE4F80839091A00180919F0198177C
:1009D000C8F285E8D8CFE091A00181E08E0F809326
:1009E000A0018091BB00F0E0E158FE4F8083809130
:1009F000CC0181115DCF81E08093CB0184EA8093AB
:100A0000BC001092CD0127CF85EC8093BC001092E2
:100A1000CD0180917D01803230F4E0917D01F0E0E4
:100A2000E35AFE4F108260917D0170E0E091D201A7
:100A3000F091D3018DE591E0099510927D010BCFE6
:100A400010927E0135CF83E085BD789490916E0041
:100A5000916090936E00C1E0C0938000809381000C
:100A600096E890937A0014BEA895F8940FB6F8947F
:100A7000A89590916000986190936000109260003A
:100A80000FBE90E89093610080936100789461E0DC
:100A900084E138DE60E084E035DE60E086E032DE6E
:100AA00061E085E02FDE61E085E0F0DD60E087E079
:100AB00029DE60E080E026DE60E081E023DE60E0A9
:100AC00082E020DE60E083E01DDE61E087E11ADE87
:100AD00060E087E1DBDD1092F9011092F80161E03E
:100AE00088E110DE61E088E1D1DD61E089E10ADEC4
:100AF00061E089E1CBDD61E08AE104DE61E08AE169
:100B0000C5DD4DDB609310027093110280931202D9
:100B10009093130264527A4F8F4F9F4F60930C0251
:100B200070930D0280930E0290930F0288E28093DF
:100B3000BA0084E790E09093D5018093D40180E8D7
:100B400090E09093D3018093D2011092D101109242
:100B5000D0011092CF011092CE011092CD01C0931E
:100B6000CC011092CB0161E085E190DD61E086E18E
:100B70008DDD8091B9008E7F8093B9008091B9009E
:100B80008D7F8093B90080E28093B80085E48093E4
:100B9000BC0087EE92E09093D7018093D60180E568
:100BA00091E09093D9018093D80188E19EE00FB63F
:100BB000F894A895809360000FBE9093600001E0C8
:100BC00010E0A4E0CA2ED12CB2E12B2E312CCAE0C9
:100BD0006C2E712C8091E6019091E701019668E0FE
:100BE00070E057D29093E7018093E601009759F0A7
:100BF0002091EE013091EF012130310509F0E5C07F
:100C0000029709F0E2C061E084E140DD1092E90161
:100C10001092E801C0E2D1E0E2E0AE2EE1E0BE2EAB
:100C2000FAEFEF2EF1E0FF2E4701888122960ADDD0
:100C30008130910509F0CBC0D5018D939C938091B3
:100C4000E8019091E90101969093E9018093E80110
:100C5000B2E0AB0EB11CE2E08E0E911C88E291E096
:100C60008C179D0711F78091F0019091F101892B6C
:100C700059F184E0E7DC019709F18091EE01909150
:100C8000EF01892B09F0AAC01093EF010093EE0148
:100C900086DA6C53764F8F4F9F4F6093EA017093C3
:100CA000EB018093EC019093ED0161E087E02ADD98
:100CB00060E087E0EBDC60E085E0E8DC8091F0015B
:100CC0009091F101019771F084E0BCDC892B51F027
:100CD00061E086E017DD61E086E0D8DC1093F10189
:100CE0000093F0015CDA609310027093110280931C
:100CF00012029093130280900C0290900D02A0902B
:100D00000E02B0900F0286169706A806B90608F0E4
:100D100046C1E091F801F091F9018091F6019091BE
:100D2000F70130E020E0019709F083C01092F7014D
:100D30001092F60130E020E02F5F3F4FC9018E0F87
:100D40009F1FB601A6D1EC01880F991FDC01AE5F91
:100D5000BE4F4D915C91452B41F086509E4FDC017A
:100D60008D919C91892B09F475C02430310521F7B0
:100D700083E168DC019709F02FC11092F301109212
:100D8000F2018091F4019091F50101968B3091056B
:100D90000CF444C17092F5016092F4014FEF50E001
:100DA00090E080E0F701219131917F012417350710
:100DB0002CF4223C310514F0A9012C010196843059
:100DC000910581F7E201249645C060E01DCFF50151
:100DD00011821082D4011D921C923ACFE0D98090EA
:100DE000EA019090EB01A090EC01B090ED01681544
:100DF00079058A059B0508F461CF60E086E046DC52
:100E00001092F1011092F0011092EF011092EE0198
:100E100061E085E03BDC60E086E074DC61E087E077
:100E200035DC60E087E06EDC49CF2430310509F421
:100E300081CF2F5F3F4FC9018E0F9F1FB60129D170
:100E4000EC01DC01AA0FBB1FAE5FBE4F8D919C91E0
:100E5000892B59F3D0930F01C0930E0120E0C430C9
:100E6000D10514F0249721E0D0930D01C0930C011B
:100E7000222321F030920B0120920A0110920302EA
:100E800010920202109205021092040210920702C0
:100E9000109206021092090210920802CE01880FE9
:100EA000991FFC01EE5FFD4F11830083222359F14E
:100EB00020910A0130910B012F5F3F4F86509E4FCA
:100EC000FC01E080F180E1E0F0E0CE018E0F9F1F99
:100ED000B601DFD0880F991FDC01A650BE4F4D919F
:100EE0005C914E155F0539F42F5F3F4F8E5F9D4F2C
:100EF000DC010D931C933196E430F10531F730930A
:100F00000B0120930A01F89492E0A92E92E0B92EE9
:100F1000450124E0E22EF12CF401819191914F01E1
:100F2000019759F4C7016EEF7FEFA2D0885D9E4F05
:100F300060E0DC0118968C91A9DBB1E0EB1AF108B6
:100F400059F7F12CE12CF501819191915F01892BE9
:100F500031F461E0F701E85DFE4F808197DBF2E05C
:100F6000EF0EF11C88E0E816F10469F77894D0934D
:100F7000F901C093F8018091100290911102A091A3
:100F80001202B091130284529A4FAF4FBF4F809319
:100F90000C0290930D02A0930E02B0930F02809169
:100FA0000A0290910B02019690930B0280930A0221
:100FB000D1D8EB0189E1882E912CA12CB12CCAD873
:100FC0006C1B7D0B683E7340D8F181149104A10421
:100FD000B10471F5A895FECD1092F5011092F401BF
:100FE0008091F2019091F30101968B309105DCF034
:100FF0007092F3016092F20130E020E090E080E036
:10100000D7014D915D917D012417350714F49A01A4
:101010002C0101968430910599F7D4CE9093F50177
:101020008093F401BBCE9093F3018093F201E4CF5F
:1010300091E0891A9108A108B108C851DC4FBFCFCF
:1010400081149104A104B10409F0B9CFC3CFEAED32
:10105000F1E01382128288EE93E0A0E0B0E0848396
:101060009583A683B78384E191E09183808308957B
:101070000024552704C0080E591F880F991F009798
:1010800029F076956795B8F37105B9F7802D952FFE
:10109000089597FB072E16F4009406D077FD08D02C
:1010A0002DD007FC05D03EF4909581959F4F089573
:1010B000709561957F4F0895A1E21A2EAA1BBB1B64
:1010C000FD010DC0AA1FBB1FEE1FFF1FA217B30714
:1010D000E407F50720F0A21BB30BE40BF50B661F2A
:1010E000771F881F991F1A9469F7609570958095EE
:1010F00090959B01AC01BD01CF010895AA1BBB1BBC
:1011000051E107C0AA1FBB1FA617B70710F0A61B07
:10111000B70B881F991F5A95A9F780959095BC0128
:10112000CD010895EE0FFF1F0590F491E02D099475
:04113000F894FFCF61
:101134001E000100000000000000E300E200E100E6
:101144000000000040013601FE00EB00DC00DB0083
:1011540000000100020003001700180019001A0023
:00000001FF
