:100000004DC071C070C01EC41DC41CC41BC46BC0D5
:100010006AC069C068C067C066C065C0C9C363C044
:1000200062C061C060C018C400002D002400270019
:100030002A0000002E00250028002B0000000000F0
:1000400000000000000304000000000000000000A9
:10005000000000000000000000002C00230026002B
:10006000290004040404040404040202020202023B
:10007000020203030303030303010101010301025D
:1000800004081020408001020408102040808001F4
:1000900002040810200102040840060911241FBEB2
:1000A000CFEFD2E0DEBFCDBF22E0AAE2B1E001C0D7
:1000B0001D92A731B207E1F711E0A0E0B1E0E2EF55
:1000C000F2E102C005900D92AA32B107D9F710E013
:1000D000CEE4D0E003C02197FE0103D9CD34D1078F
:1000E000D1F7D8D404C98CCFE091D401F091D501D7
:1000F000309729F01092CB011092CA01099408950B
:10010000CF93DF93AC01E091D201F091D30130970E
:10011000F1F09091CD018091CC019817C0F090E062
:10012000292F30E02617370754F4D901A456BE4FC3
:10013000240F351FE90128812C939F5FF1CF109286
:10014000CD016093CC01CB01DF91CF910994DF9178
:10015000CF9108953FB7F8948091C3019091C40165
:10016000A091C501B091C60126B5A89B05C02F3F3F
:1001700019F00196A11DB11D3FBFBA2FA92F982FCD
:100180008827BC01CD01620F711D811D911D43E0C7
:10019000660F771F881F991F4A95D1F708952FB7CB
:1001A000F8946091BF017091C0018091C10190915C
:1001B000C2012FBF08950895E091CD018091CC0137
:1001C000E81730F4F0E0E456FE4F808190E00895A7
:1001D0008FEF9FEF08959091CD018091CC012FEF8B
:1001E0003FEF981748F4E92FF0E0E456FE4F2081E6
:1001F00030E09F5F9093CD01C90108958091CC01BB
:100200009091CD01891B990B089585ED8093BC00D9
:100210008091BC0084FDFCCF1092C901089520910B
:100220005501260F3327331F21323105ECF420917D
:10023000C901FC0190E080E0243069F082E008957B
:10024000A09155012191AC014B5C5E4FA40FB52FDD
:10025000B11D2C930196861798F380915501680F74
:100260006093550180E0089581E00895CF93DF9376
:10027000CB01EA01642FD3DFCE01DF91CF91089546
:10028000CF93DF931F92CDB7DEB7698361E0CE01D4
:100290000196C5DF81E090E00F90DF91CF91089546
:1002A000CF93DF938130910561F49091CC018091DF
:1002B000CD019817B1F186ED91E08DDF8093340187
:1002C000F4CF029771F586ED91E085DFEC0186EDC4
:1002D00091E081DFC0933401A197C430D10508F5C6
:1002E000CC0FDD1FFE01E45DFE4F91838083C6507D
:1002F000DE4F288139812130310599F4EAEFF1E0B0
:1003000030E020E0419151914130510529F4D9016B
:10031000A45DBE4F8D939C932E5F3F4F28303105D7
:1003200089F7DF91CF91089587FF04C08F778830D8
:10033000D0F48F5E90E0FC01E258FF4F2491FC0165
:10034000EE59FF4FE491EE2381F0F0E0EE0FFF1F36
:10035000E85AFF4FA591B491EC91E22381E090E03F
:1003600031F480E008958FEFE5CF80E090E00895CC
:1003700087FF04C08F77883058F58F5E90E0FC01CE
:10038000E45CFF4F3491FC01E258FF4F2491FC01E3
:10039000EE59FF4FE491EE23D1F0332339F033309F
:1003A000C9F4809180008F7780938000F0E0EE0F99
:1003B000FF1FEE5CFF4FA591B4918FB7611110C084
:1003C000F8949C91E22FE095E923EC938FBF089578
:1003D0008FEFD4CF343051F7809180008F7DE4CF00
:1003E000F894EC91E22BF1CFA0E0B1E011961C92D1
:1003F0001E92E2E0F2E01182108213961C921E928D
:1004000012971382128215961C921E9214971582CF
:10041000148217961C921E9216971782168260E01D
:1004200087E1A6DF61E088E1A3DF61E089E1A0DF89
:1004300061E08AE19DCFCF92DF92EF92FF928091AF
:100440003401863509F4A5C008F08DC0873309F45E
:1004500012C108F04FC02091320130913301843233
:10046000D9F010F520912C0130912D018132A1F0AD
:1004700038F42EE130E0803179F028EE30E00CC025
:1004800020912E0130912F01823231F020913001E4
:1004900030913101833289F7622F86ED91E0FF9030
:1004A000EF90DF90CF90ECCE2091E4013091E50108
:1004B000823391F378F42091E6013091E7018033A3
:1004C00059F320910A0230910B022F5F3F4F813385
:1004D00019F3D3CF2091F6013091F7018333E1F284
:1004E000843359F683E120DF51E0019709F050E0B1
:1004F000252FD2CF803509F4EEC0F0F4823409F410
:10050000E0C080F4803409F4D6C02091020230911A
:100510000302813409F0B1CF35952795359527959C
:100520003327BACF833409F4D1C020910802309127
:100530000902843489F3A1CF21EA30E0833509F43C
:10054000ABCF48F4813509F4B7C020EE3EE28235E6
:1005500009F4A2CF92CF8435E1F022EA30E085356C
:1005600009F49ACF8ACF823709F4C8C0F0F52091F8
:10057000000130910101813609F48ECF60F4883595
:1005800041F008F4B3C0893509F4B0C08A3509F0E8
:1005900074CF20E081CF209106013091070184368D
:1005A00009F47ACF78F42091020130910301823668
:1005B00009F472CF2091040130910501833609F4CA
:1005C0006BCF5BCF803709F494C0813709F055CFEA
:1005D000209113023091140240911502509116029D
:1005E000232F342F452F55279BCF8A3709F49BC0E3
:1005F000F0F42EE230E0853709F44ECF48F483372B
:1006000009F47FC020EE30E0843709F445CF35CFC0
:10061000883709F483C0893709F02FCF20910F0262
:10062000309110024091110250911202D9CF8138BD
:1006300009F4AFCF48F48B3709F478C02EEA30E0E4
:10064000803809F429CF19CF883809F4A2CF893925
:1006500009F013CF109203021092020210920502C9
:1006600010920402109207021092060210920902E0
:100670001092080211CF8091EC019091ED012FEFC3
:1006800030E0892B09F408CFC090E801D090E9014F
:10069000E090EA01F090EB0182DDA7019601261BB4
:1006A000370B480B590BCA01B9012DE730E040E088
:1006B00050E0E1D5F1CE98DE2091F8013091F901BA
:1006C000EBCE209104023091050226CF2091060244
:1006D0003091070221CF20912A0130912B012F5F09
:1006E0003F4F30932B0120932A01D6CE23EA30E0EE
:1006F000D3CE209113023091140212CF2091150213
:10070000CBCE2091130230911402409115025091EA
:100710001602252F332744275527BECE20910F02DE
:1007200030911002FDCE20911102B6CE20910F0221
:10073000309110024091110250911202EACFCF93F2
:10074000DF9387FF04C08F77883048F58F5E90E095
:10075000FC01E258FF4F24918E599F4FFC01849178
:100760008823D1F090E0880F991FFC01E85DFF4FCE
:10077000A591B491FC01EE5CFF4FC591D49161113C
:1007800010C09FB7F8948C91E22FE0958E238C9344
:100790002881E223E8839FBFDF91CF9108958FEFF7
:1007A000D6CF8FB7F894EC91E22BEC938FBFF4CFB8
:1007B0001F920F920FB60F9211242F933F938F9396
:1007C0009F93AF93BF938091BF019091C001A0917F
:1007D000C101B091C2013091BE0126E0230F2D3737
:1007E00068F129E8230F0396A11DB11D2093BE01D6
:1007F0008093BF019093C001A093C101B093C20147
:100800008091C3019091C401A091C501B091C6012E
:100810000196A11DB11D8093C3019093C401A093C3
:10082000C501B093C601BF91AF919F918F913F9148
:100830002F910F900FBE0F901F9018950296A11D3B
:10084000B11DD4CF1F920F920FB60F9211240F90AB
:100850000FBE0F901F9018951F920F920FB60F9218
:1008600011242F933F934F935F936F937F938F93B5
:100870009F93AF93BF93EF93FF938091B900887FCD
:10088000803609F449C0E8F5883209F4A6C018F5A5
:10089000803109F49AC0B8F4882309F4F8C088308C
:1008A00009F493C0FF91EF91BF91AF919F918F9108
:1008B0007F916F915F914F913F912F910F900FBE5C
:1008C0000F901F901895883109F487C0803251F736
:1008D0008093780114C0803409F49CC040F48033C4
:1008E000B9F38833F9F68093780185ECAFC0803591
:1008F00009F484C0883509F495C0883499F685DCFC
:10090000D1CF883909F48CC038F5883729F050F4F4
:10091000883611F0803731F683E08093C901109258
:10092000770157C0883809F47BC0803919F08038C6
:1009300009F0B8CF80917701803208F071C0E09162
:10094000770181E08E0F809377018091BB00F0E00A
:10095000E95AFE4F80833DC0803B39F0E0F4803A95
:1009600009F479C0883A09F09DCF84E08093C901E9
:100970001092560110925501E091D001F091D101F1
:1009800009958091550181110FC081E08093550137
:100990001092350109C0803C09F4A7CF883C09F4C6
:1009A000A4CF883B09F07ECFE091560181E08E0F05
:1009B00080935601F0E0EB5CFE4F80818093BB009A
:1009C000909156018091550129C080919B0180939F
:1009D000BB0085EC8093BC0065CF90919A0180911B
:1009E0009901981758F5E0919A0181E08E0F809354
:1009F0009A01F0E0E758FE4F8081E9CFE0919A013B
:100A000081E08E0F80939A018091BB00F0E0E7585F
:100A1000FE4F808390919A01809199019817C8F2B6
:100A200085E8D8CFE0919A0181E08E0F80939A01FA
:100A30008091BB00F0E0E758FE4F80838091C801B1
:100A400081115DCF81E08093C70184EA8093BC006F
:100A50001092C90127CF85EC8093BC001092C90188
:100A600080917701803230F4E0917701F0E0E95A2B
:100A7000FE4F10826091770170E0E091CE01F0911D
:100A8000CF0187E591E00995109277010BCF109285
:100A9000780135CFCF93DF9300D000D0CDB7DEB74C
:100AA00093E095BD789480916E00816080936E0094
:100AB00081E0809380009093810086E880937A00A3
:100AC00014BEA895F8940FB6F894A895809160008C
:100AD000886180936000109260000FBE80E8809370
:100AE00061001092610061E086E029DE60E084E050
:100AF00026DE84E019DC9A838983019709F06BC1B3
:100B000061E086E035DC29813A813093F50120935C
:100B1000F40178941092080161E084E110DE61E054
:100B20008FE00DDE61E082E10ADE61E082E120DC3F
:100B300061E085E004DE61E085E01ADC60E087E0EA
:100B4000FEDD60E080E0FBDD60E081E0F8DD60E09C
:100B500082E0F5DD60E083E0F2DD61E087E1EFDD7A
:100B600060E087E105DC10920B0210920A0261E05E
:100B700088E1E5DD61E088E1FBDB61E089E1DFDD63
:100B800061E089E1F5DB61E08AE1D9DD61E08AE1DC
:100B9000EFDB05DB60931302709314028093150260
:100BA000909316026052714D8F4F9F4F60930F02CA
:100BB00070931002809311029093120288E2809346
:100BC000BA0084E790E09093D1018093D00180E84F
:100BD00090E09093CF018093CE011092CD011092BE
:100BE000CC011092CB011092CA011092C90181E090
:100BF0008093C8011092C70161E085E1B9DB61E033
:100C000086E1B6DB8091B9008E7F8093B900809138
:100C1000B9008D7F8093B90080E28093B80085E4AD
:100C20008093BC0080E591E09093D3018093D20142
:100C30008BE192E09093D5018093D40188E19EE00E
:100C40000FB6F894A895809360000FBE9093600053
:100C500060E082E18DDB78E0272E312C01E010E0AE
:100C6000E4E06E2E712CFAEFAF2EF1E0BF2EA2E081
:100C70004A2E512C8091E2019091E3010196B1013D
:100C8000E7D29093E3018093E201009759F020911D
:100C9000EC013091ED012130310509F0A4C002973B
:100CA00009F0A1C061E084E163DB1092E7011092DA
:100CB000E60189E191E09C838B83A2E0B2E0BA83F4
:100CC000A9834D0160E0C62E61E0D62EEB81FC8148
:100CD00080813296FC83EB8327DB8130910509F01C
:100CE00084C0D6018D939C938091E6019091E70199
:100CF00001969093E7018093E601B2E0CB0ED11C00
:100D0000E2E08E0E911C2B813C8121523140F1F6A4
:100D1000E8E0F1E090E080E0880F991F32912291A5
:100D20002130310509F40196A0E0B1E0AE17BF070C
:100D300099F79093E5018093E401E091EC01F09143
:100D4000ED01FC83EB83319709F056C028DAC0909F
:100D5000E801D090E901E090EA01F090EB016C1518
:100D60007D058E059F0508F447C060E086E000DB46
:100D70001092F5011092F4011092ED011092EC0125
:100D800061E085E0F5DA61E087E0F2DA60E087E0D3
:100D9000D6DC2ADB8091F4019091F501019709F4EA
:100DA0006EC084E0C1DA892B09F469C0F8D96B01FF
:100DB0007C01C0921302D0921402E0921502F092CC
:100DC000160287E0B1DA019709F040C01092F301F2
:100DD0001092F20154C060E086E0CADA1092F50188
:100DE0001092F40196CE60E05ECFF601118210827F
:100DF000D4011D921C9281CF8091F4019091F50154
:100E0000892B79F284E090DA019721F22B813C81E1
:100E1000232B09F0BFCF1093ED010093EC01BFD954
:100E2000605E714B8F4F9F4F6093E8017093E901B3
:100E30008093EA019093EB0161E087E080DC60E061
:100E400087E096DA60E085E093DAA4CF8091F20142
:100E50009091F301892B09F051C030EDC30E37E0BA
:100E6000D31EE11CF11CC092EE01D092EF01E09282
:100E7000F001F092F1011093F3010093F2018FD988
:100E800060931302709314028093150290931602DC
:100E900020910F02309110024091110250911202E4
:100EA000261737074807590708F01CC181E08093CF
:100EB0000E0210920D0210920C02E0910A02F091C3
:100EC0000B0230E020E02F5F3F4FC9018E0F9F1FC4
:100ED000B301BED19C838B83880F991FDC01A05086
:100EE000BF4F4D915C91452BF9F08E5F9D4FDC011A
:100EF0008D919C91892BC1F420E048C08091EE0136
:100F00009091EF01A091F001B091F1018C159D0538
:100F1000AE05BF0508F0B3CF61E086E029DA109393
:100F2000F5010093F40152CF2430310561F683E1DD
:100F3000FBD9019709F03CC148EE53E090E080E016
:100F4000E981FA8121913191FA83E98324173507E8
:100F50003CF42534F2E03F071CF0A9019C838B830D
:100F600001968430910561F78091F4019091F5012B
:100F7000019709F032C1EB81FC813496FC83EB834D
:100F80008B819C8104979C838B8321E01092FB01D1
:100F90001092FA011092FD011092FC011092FF01D3
:100FA0001092FE0110920102109200028B819C812E
:100FB000880F991FFC01E650FE4F11830083222306
:100FC00029F18E5F9D4FDC01ED91FC9121E030E035
:100FD0008B819C81820F931FB3013AD1880F991F97
:100FE000DC01AE5FBD4F4D915C914E1B5F0B4A5FC4
:100FF0005F4F4D30510528F486509E4FDC010D9314
:101000001C932F5F3F4F2430310511F772E0E72E1C
:1010100072E0F72E90E080E0880F991FF70132917F
:1010200022917F012130310509F40196AE14BF04ED
:1010300099F79093F7018093F601F894450154E0F5
:10104000C52ED12CD4018D919D914D01019751F464
:10105000C6016EEF7FEFEBD08F5D9E4F60E0FC012D
:10106000808586D9F1E0CF1AD10861F7D12CC12C47
:10107000D7018D919D917D01892B31F461E0F601BD
:10108000EF5DFE4F808174D9B2E0CB0ED11CE8E059
:10109000CE16D10469F778942B813C8130930B02F2
:1010A00020930A028091130290911402A0911502DC
:1010B000B09116028052914DAF4FBF4F40910C023C
:1010C00050910D02052E000C660B770B840F951FB7
:1010D000A61FB71F80930F0290931002A0931102D6
:1010E000B093120280910E028823E9F110920E0251
:1010F000809108018295880F880F807480937C000E
:1011000080917A00806480937A0080917A0086FDD5
:10111000FCCF8091780020917900322F282F809188
:101120000A0290910B02880F991FFC01EE5FFD4FA0
:101130003183208386509E4FDC018D919C910197D5
:1011400091F4EAEFF1E090E080E04191519141307B
:10115000510529F4DC01AE5FBD4F2D933C930296FF
:101160008830910591F78091F8019091F9010196ED
:101170009093F9018093F801B2016AD0682F8FE053
:10118000F7D8E8D77A83698388ECC82ED12CE12C74
:10119000F12CE0D729813A81621B730B683E7340C2
:1011A00078F1C114D104E104F104F1F4A89562CD01
:1011B00030E020E090E080E0A981BA814D915D911E
:1011C000BA83A983241735071CF49A019C838B8367
:1011D00001968430910581F7C7CE2B813C81243064
:1011E00031050CF489CECCCEB1E0CB1AD108E108A0
:1011F000F108E981FA81E851FC4FFA83E983C9CF0C
:10120000C114D104E104F10421F6D0CFE6EDF1E000
:101210001382128288EE93E0A0E0B0E0848395838D
:10122000A683B7838DE091E09183808308950024A5
:10123000552704C0080E591F880F991F009729F0E1
:1012400076956795B8F37105B9F7802D952F0895B8
:1012500097FB072E16F4009406D077FD08D02DD00A
:1012600007FC05D03EF4909581959F4F08957095A9
:1012700061957F4F0895A1E21A2EAA1BBB1BFD01A9
:101280000DC0AA1FBB1FEE1FFF1FA217B307E40765
:10129000F50720F0A21BB30BE40BF50B661F771FBD
:1012A000881F991F1A9469F760957095809590959D
:1012B0009B01AC01BD01CF010895AA1BBB1B51E1ED
:1012C00007C0AA1FBB1FA617B70710F0A61BB70BB6
:1012D000881F991F5A95A9F780959095BC01CD015B
:1012E0000895EE0FFF1F0590F491E02D0994F894F6
:0212F000FFCF2E
:1012F2000100000000000000010000000040013673
:1013020001FE00EB00DC00DB000000010002000334
:0A131200001700180019001A00006F
:00000001FF
