:100000004DC071C070C06FC06EC06DC06CC06BC0A1
:100010006AC069C068C067C066C065C081C363C08C
:1000200062C061C060C0C6C300002D00240027006C
:100030002A0000002E00250028002B0000000000F0
:1000400000000000000304000000000000000000A9
:10005000000000000000000000002C00230026002B
:10006000290004040404040404040202020202023B
:10007000020203030303030303010101010301025D
:1000800004081020408001020408102040808001F4
:1000900002040810200102040840190811241FBEA0
:1000A000CFEFD2E0DEBFCDBF11E0A0E0B1E0E8E1EC
:1000B000F1E102C005900D92A832B107D9F722E014
:1000C000A8E2B1E001C01D92AC30B207E1F710E048
:1000D000CEE4D0E003C02197FE0116D8CD34D1077D
:1000E000D1F786D417C88CCFE091D001F091D1011F
:1000F000309729F01092C7011092C6010994089513
:10010000CF93DF93AC01E091CE01F091CF01309716
:10011000F1F09091C9018091C8019817C0F090E06A
:10012000292F30E02617370754F4D901A656BE4FC1
:10013000240F351FE90128812C939F5FF1CF109286
:10014000C9016093C801CB01DF91CF910994DF9180
:10015000CF9108953FB7F8948091BF019091C0016D
:10016000A091C101B091C20126B5A89B05C02F3F47
:1001700019F00196A11DB11D3FBFBA2FA92F982FCD
:100180008827BC01CD01620F711D811D911D43E0C7
:10019000660F771F881F991F4A95D1F708952FB7CB
:1001A000F8946091BB017091BC018091BD01909168
:1001B000BE012FBF08950895E091C9018091C80143
:1001C000E81730F4F0E0E656FE4F808190E00895A5
:1001D0008FEF9FEF08959091C9018091C8012FEF93
:1001E0003FEF981748F4E92FF0E0E656FE4F2081E4
:1001F00030E09F5F9093C901C90108958091C801C3
:100200009091C901891B990B089585ED8093BC00DD
:100210008091BC0084FDFCCF1092C501089520910F
:100220005301260F3327331F21323105ECF420917F
:10023000C501FC0190E080E0243069F082E008957F
:10024000A09153012191AC014D5C5E4FA40FB52FDD
:10025000B11D2C930196861798F380915301680F76
:100260006093530180E0089581E00895CF93DF9378
:10027000CB01EA01642FD3DFCE01DF91CF91089546
:10028000CF93DF931F92CDB7DEB7698361E0CE01D4
:100290000196C5DF81E090E00F90DF91CF91089546
:1002A000CF92DF92EF92FF928091320123EE30E005
:1002B000873571F108F095C0833309F409C108F05E
:1002C00047C02091F6013091F701833209F198F48B
:1002D0002091F2013091F3018132D1F02091F401AB
:1002E0003091F5018232A0F426E130E0803181F0D6
:1002F00028EE30E00DC02091E0013091E101803323
:1003000039F070F42091F8013091F901843281F7CD
:10031000622F82ED91E0FF90EF90DF90CF90B0CF11
:10032000813309F4C8C0823319F7E8E0F1E080E0D6
:1003300091E030E020E0220F331F52914291413092
:10034000510511F42F5F3F4F8E179F07A1F7E0CFA4
:100350002CED35E08235E1F298F52091EE013091F7
:10036000EF018034A9F208F5873311F68091E60198
:100370009091E7012FEF30E0892B51F2C090E2011C
:10038000D090E301E090E401F090E50108DFA701DF
:100390009601261B370B480B590BCA01B9012DE7F3
:1003A00030E040E050E07AD6B3CF803509F4A3C006
:1003B0002091020230910302813509F4A9CF98CF30
:1003C000843569F021EE30E0843508F4A1CF22EEC7
:1003D00030E0853509F49CCF863509F089CF20E0DF
:1003E00097CF833709F4A5C070F520912C01309187
:1003F0002D01833609F48CCF88F4209128013091A7
:100400002901813609F484CF20912A0130912B01F2
:10041000823608F07DCF883511F36ACF803709F432
:1004200075C040F420912E0130912F01843609F4DB
:100430006FCF5ECF813709F46FC020910A028237F7
:1004400009F466CF55CF209106028A3709F460CFB0
:10045000C8F425E030E0853709F45ACF2CED30E0C0
:10046000853708F455CF883709F470C0893709F00B
:100470003FCF209104023091050240910602509135
:10048000070252C02EEE30E0803809F441CF60F40C
:100490008B3709F02DCF2091040230910502409155
:1004A0000602509107024DC0813809F498CF883870
:1004B00009F495CF1DCF2091F0013091F1012F5F0C
:1004C0003F4F81E090E09093EF018093EE0120CFC9
:1004D000E2E0F2E08AEF91E030E020E0220F331F0B
:1004E000529142914130510511F42F5F3F4F8E17C9
:1004F0009F07A1F70DCF20913001309131012F5F7F
:100500003F4F309331012093300102CF20910802F8
:10051000309109023327FCCE209108023091090264
:1005200040910A0250910B02232F342F452F55275B
:10053000F1CF209108023091090240910A025091B6
:100540000B02252F332744275527E2CE20910402A2
:1005500030910502DFCFCF93DF938130910561F4B5
:100560009091C8018091C9019817F1F182ED91E055
:1005700032DE80933201F4CF0297B1F582ED91E043
:100580002ADEEC01909329018093280182ED91E00D
:1005900022DE90932B0180932A01C0933201A19710
:1005A000C430D10508F5CC0FDD1FFE01EE50FE4F23
:1005B00091838083C650DE4F2881398121303105F7
:1005C00099F4EAEFF1E030E020E0419151914130BF
:1005D000510529F4D901AE50BE4F8D939C932E5FE7
:1005E0003F4F2830310589F7DF91CF91089587FF7C
:1005F00004C08F778830D0F48F5E90E0FC01E25821
:10060000FF4F2491FC01EE59FF4FE491EE2381F05E
:10061000F0E0EE0FFF1FE85AFF4FA591B491EC9167
:10062000E22381E090E031F480E008958FEFE5CFA0
:1006300080E090E0089587FF04C08F77883058F5F8
:100640008F5E90E0FC01E45CFF4F3491FC01E258C6
:10065000FF4F2491FC01EE59FF4FE491EE23D1F0BE
:10066000332339F03330C9F4809180008F77809341
:100670008000F0E0EE0FFF1FEE5CFF4FA591B491FC
:100680008FB7611110C0F8949C91E22FE095E92397
:10069000EC938FBF08958FEFD4CF343051F7809112
:1006A00080008F7DE4CFF894EC91E22BF1CFCF93D3
:1006B000DF9387FF04C08F77883048F58F5E90E026
:1006C000FC01E258FF4F24918E599F4FFC01849109
:1006D0008823D1F090E0880F991FFC01E85DFF4F5F
:1006E000A591B491FC01EE5CFF4FC591D4916111CD
:1006F00010C09FB7F8948C91E22FE0958E238C93D5
:100700002881E223E8839FBFDF91CF9108958FEF87
:10071000D6CF8FB7F894EC91E22BEC938FBFF4CF48
:100720001F920F920FB60F9211242F933F938F9326
:100730009F93AF93BF938091BB019091BC01A09117
:10074000BD01B091BE013091BA0126E0230F2D37D3
:1007500068F129E8230F0396A11DB11D2093BA016A
:100760008093BB019093BC01A093BD01B093BE01E7
:100770008091BF019091C001A091C101B091C201CF
:100780000196A11DB11D8093BF019093C001A0935C
:10079000C101B093C201BF91AF919F918F913F91E1
:1007A0002F910F900FBE0F901F9018950296A11DCC
:1007B000B11DD4CF1F920F920FB60F9211242F9319
:1007C0003F934F935F936F937F938F939F93AF93D9
:1007D000BF93EF93FF938091B900887F803609F42F
:1007E00049C0E8F5883209F4A6C018F5803109F44B
:1007F0009AC0B8F4882309F4F8C0883009F493C08B
:10080000FF91EF91BF91AF919F918F917F916F91E8
:100810005F914F913F912F910F900FBE0F901F90BE
:100820001895883109F487C0803251F7809376019A
:1008300014C0803409F49CC040F48033B9F3883389
:10084000F9F68093760185ECAFC0803509F484C059
:10085000883509F495C0883499F6D7DCD1CF88392A
:1008600009F48CC038F5883729F050F4883611F037
:10087000803731F683E08093C5011092750157C02F
:10088000883809F47BC0803919F0803809F0B8CF76
:1008900080917501803208F071C0E091750181E0AE
:1008A0008E0F809375018091BB00F0E0EB5AFE4FF4
:1008B00080833DC0803B39F0E0F4803A09F479C090
:1008C000883A09F09DCF84E08093C50110925401CD
:1008D00010925301E091CC01F091CD0109958091E6
:1008E000530181110FC081E08093530110923301B5
:1008F00009C0803C09F4A7CF883C09F4A4CF883B09
:1009000009F07ECFE091540181E08E0F8093540175
:10091000F0E0ED5CFE4F80818093BB00909154012C
:100920008091530129C0809199018093BB0085EC8F
:100930008093BC0065CF90919801809197019817A2
:1009400058F5E091980181E08E0F80939801F0E0D6
:10095000E958FE4F8081E9CFE091980181E08E0F48
:10096000809398018091BB00F0E0E958FE4F8083AE
:1009700090919801809197019817C8F285E8D8CF97
:10098000E091980181E08E0F809398018091BB00E7
:10099000F0E0E958FE4F80838091C40181115DCF62
:1009A00081E08093C30184EA8093BC001092C5016A
:1009B00027CF85EC8093BC001092C5018091750112
:1009C000803230F4E0917501F0E0EB5AFE4F108276
:1009D0006091750170E0E091CA01F091CB0185E56D
:1009E00091E00995109275010BCF1092760135CFE9
:1009F00083E085BD789490916E00916090936E0035
:100A0000C1E0C09380008093810096E890937A00C3
:100A100014BEA895F8940FB6F894A895909160002C
:100A2000986190936000109260000FBE90E89093E0
:100A3000610080936100789461E084E138DE60E0D9
:100A400084E035DE60E086E032DE61E085E02FDEC6
:100A500061E085E0F0DD60E087E029DE60E080E0D5
:100A600026DE60E081E023DE60E082E020DE60E000
:100A700083E01DDE61E087E11ADE60E087E1DBDD17
:100A80001092F1011092F00161E088E110DE61E066
:100A900088E1D1DD61E089E10ADE61E089E1CBDD59
:100AA00061E08AE104DE61E08AE1C5DD78DB609324
:100AB00008027093090280930A0290930B02645219
:100AC0007A4F8F4F9F4F609304027093050280937B
:100AD00006029093070288E28093BA0084E790E0D0
:100AE0009093CD018093CC0180E890E09093CB016E
:100AF0008093CA011092C9011092C8011092C701D7
:100B00001092C6011092C501C093C4011092C30196
:100B100061E085E190DD61E086E18DDD8091B900E5
:100B20008E7F8093B9008091B9008D7F8093B9004A
:100B300080E28093B80085E48093BC008BEA92E069
:100B40009093CF018093CE0180E591E09093D10105
:100B50008093D00188E19EE00FB6F894A895809329
:100B600060000FBE9093600038E0432E512C01E0EE
:100B700010E044E0C42ED12C5AE0652E712C8091F7
:100B8000DE019091DF010196B20175D29093DF01F1
:100B90008093DE01009759F02091E6013091E70142
:100BA0002130310509F0A3C1029709F0A0C161E02D
:100BB00084E141DD1092E1011092E001C8E1D1E051
:100BC00090E0A92E91E0B92E22EFE22E21E0F22E44
:100BD0004701888122960BDD8130910509F089C19A
:100BE000D5018D939C938091E0019091E101019654
:100BF0009093E1018093E001B2E0AB0EB11CE2E022
:100C00008E0E911CF1E0C032DF0719F78091E801E8
:100C10009091E901892B59F184E0E9DC019709F110
:100C20008091E6019091E701892B09F069C1109349
:100C3000E7010093E601B3DA6C53764F8F4F9F4F75
:100C40006093E2017093E3018093E4019093E501E6
:100C500061E087E02CDD60E087E0EDDC60E085E0CE
:100C6000EADC8091E8019091E901019771F084E05C
:100C7000BEDC892B51F061E086E019DD61E086E0A1
:100C8000DADC1093E9010093E80189DA6093080245
:100C90007093090280930A0290930B0280900402E1
:100CA00090900502A0900602B09007028616970663
:100CB000A806B90608F0FCC0E091F001F091F1013E
:100CC0008091EE019091EF0130E020E0019709F072
:100CD00042C11092EF011092EE0130E020E02F5F50
:100CE0003F4FCF01820F931FB601C5D1EC01880F92
:100CF000991FDC01A050BF4F4D915C91452B41F0F5
:100D00008E509E4FDC018D919C91892B09F434C14A
:100D10002430310521F783E16ADC019709F02EC107
:100D20001092EB011092EA018091EC019091ED019B
:100D300001968B3091050CF459C17092ED016092CF
:100D4000EC018091EC019091ED01853091050CF062
:100D500052C1EC012197880F991FFC01E250FF4F0F
:100D600081919191009709F007C12196C430D10576
:100D7000B9F72FEF30E0D0E0C0E0F7014191519199
:100D80007F01421753072CF4423C510514F09A019D
:100D9000EC0101968430910581F781E01092FB010E
:100DA0001092FA011092FD011092FC011092FF01C5
:100DB0001092FE0110920102109200029E01220F79
:100DC000331FF901E650FE4F11830083882321F180
:100DD0002E503E4FD901ED91FC9121E030E0C90148
:100DE0008C0F9D1FB60147D1880F991FDC01AE50B3
:100DF000BE4F4D915C914E1B5F0B4E5F5F4F453078
:100E0000510528F486509E4FDC010D931C932F5FF3
:100E10003F4F2430310519F7F8949AEFA92E91E04D
:100E2000B92E450124E0E22EF12CF401819191913B
:100E30004F01019759F4C7016EEF7FEF0BD1805E30
:100E40009E4F60E0DC0118968C91F5DBB1E0EB1A67
:100E5000F10859F7F12CE12CF501819191915F0195
:100E6000892B31F461E0F701E05EFE4F8081E3DB26
:100E7000F2E0EF0EF11C88E0E816F10469F77894CF
:100E8000D093F101C093F001809108029091090282
:100E9000A0910A02B0910B0284529A4FAF4FBF4FFC
:100EA0008093040290930502A0930602B093070278
:100EB0008091020290910302019690930302809325
:100EC000020248D9EB0189E1882E912CA12CB12C8A
:100ED00041D96C1B7D0B683E734008F4A3C081149C
:100EE0009104A104B10409F095C0A89548CE60E032
:100EF0005FCEF50111821082D4011D921C927CCE2E
:100F00004ED98090E2019090E301A090E401B0906E
:100F1000E501681579058A059B0508F4A2CE60E015
:100F200086E089DB1092E9011092E8011092E70156
:100F30001092E60161E085E07EDB60E086E0B7DBF1
:100F400061E087E078DB60E087E0B1DB8ACE2430C7
:100F5000310509F4C2CE2F5F3F4FC9018E0F9F1F8D
:100F6000B60189D0EC01DC01AA0FBB1FA050BF4F16
:100F70008D919C91892B59F380E010CF1092ED0157
:100F80001092EC018091EA019091EB0101968B3077
:100F90009105B4F17092EB016092EA018091EA014F
:100FA0009091EB018530910584F5EC012197880F34
:100FB000991FFC01E250FF4F819191910097E1F65A
:100FC0002196C430D105C1F730E020E0D0E0C0E088
:100FD000D7014D915D917D012417350714F49A01D5
:100FE000EC0101968430910599F7D7CE9093ED01ED
:100FF0008093EC01A6CE2FEF30E090E080E0BBCEF6
:101000009093EB018093EA01C9CF30E020E090E0BB
:1010100080E0DCCFA1E08A1A9108A108B108C8518C
:10102000DC4F56CF81149104A104B10409F050CFD4
:101030005CCFE2EDF1E01382128288EE93E0A0E053
:10104000B0E084839583A683B7838CE091E091839D
:10105000808308950024552704C0080E591F880F67
:10106000991F009729F076956795B8F37105B9F740
:10107000802D952F089597FB072E16F4009406D027
:1010800077FD08D02DD007FC05D03EF490958195D2
:101090009F4F0895709561957F4F0895A1E21A2E94
:1010A000AA1BBB1BFD010DC0AA1FBB1FEE1FFF1F0C
:1010B000A217B307E407F50720F0A21BB30BE40B5C
:1010C000F50B661F771F881F991F1A9469F76095A3
:1010D0007095809590959B01AC01BD01CF0108955D
:1010E000AA1BBB1B51E107C0AA1FBB1FA617B7074E
:1010F00010F0A61BB70B881F991F5A95A9F780956A
:101100009095BC01CD010895EE0FFF1F0590F4915D
:08111000E02D0994F894FFCFD3
:10111800010000000000000000000000400136014E
:10112800FE00EB00DC00DB00000001000200030011
:081138001700180019001A004D
:00000001FF
