:100000004DC071C070C0F1C3F0C3EFC3EEC36BC08D
:100010006AC069C068C067C066C065C09CC363C071
:1000200062C061C060C0EBC300002D002400270047
:100030002A0000002E00250028002B0000000000F0
:1000400000000000000304000000000000000000A9
:10005000000000000000000000002C00230026002B
:10006000290004040404040404040202020202023B
:10007000020203030303030303010101010301025D
:1000800004081020408001020408102040808001F4
:1000900002040810200102040840D70811241FBEE2
:1000A000CFEFD2E0DEBFCDBF22E0AAE2B1E001C0D7
:1000B0001D92A132B207E1F711E0A0E0B1E0E4E95E
:1000C000F2E102C005900D92AA32B107D9F710E013
:1000D000CEE4D0E003C02197FE01D4D8CD34D107BF
:1000E000D1F7ABD4D5C88CCFE091DC01F091DD0124
:1000F000309729F01092D3011092D20109940895FB
:10010000CF93DF93AC01E091DA01F091DB013097FE
:10011000F1F09091D5018091D4019817C0F090E052
:10012000292F30E02617370754F4D901AC55BE4FBC
:10013000240F351FE90128812C939F5FF1CF109286
:10014000D5016093D401CB01DF91CF910994DF9168
:10015000CF9108953FB7F8948091CB019091CC0155
:10016000A091CD01B091CE0126B5A89B05C02F3F2F
:1001700019F00196A11DB11D3FBFBA2FA92F982FCD
:100180008827BC01CD01620F711D811D911D43E0C7
:10019000660F771F881F991F4A95D1F708952FB7CB
:1001A000F8946091C7017091C8018091C901909144
:1001B000CA012FBF08950895E091D5018091D4011F
:1001C000E81730F4F0E0EC55FE4F808190E00895A0
:1001D0008FEF9FEF08959091D5018091D4012FEF7B
:1001E0003FEF981748F4E92FF0E0EC55FE4F2081DF
:1001F00030E09F5F9093D501C90108958091D401AB
:100200009091D501891B990B089585ED8093BC00D1
:100210008091BC0084FDFCCF1092D1010895209103
:100220005D01260F3327331F21323105ECF4209175
:10023000D101FC0190E080E0243069F082E0089573
:10024000A0915D012191AC01435C5E4FA40FB52FDD
:10025000B11D2C930196861798F380915D01680F6C
:1002600060935D0180E0089581E00895CF93DF936E
:10027000CB01EA01642FD3DFCE01DF91CF91089546
:10028000CF93DF931F92CDB7DEB7698361E0CE01D4
:100290000196C5DF81E090E00F90DF91CF91089546
:1002A000CF92DF92EF92FF9280913C01853509F465
:1002B0003AC108F078C0873309F4FBC0D8F5209123
:1002C0003A0130913B018432D9F010F5209134018C
:1002D000309135018132A1F038F42BE130E08031EA
:1002E00079F028EE30E00CC02091360130913701D2
:1002F000823231F02091380130913901833289F70F
:10030000622F8EED91E0FF90EF90DF90CF90B8CF0D
:10031000813309F4C1C038F42091EE013091EF012E
:10032000803371F3DECF20910002309101028433DB
:1003300038F3D7CF843409F4E6C0D8F4813409F413
:10034000D8C038F42091FE013091FF018034C1F211
:10035000C8CF823409F4D2C020911002309111022A
:10036000833409F0BECF35952795359527953327EA
:10037000C7CF20EE3EE2823519F258F4803509F4F9
:10038000C7C02091020230910302813509F4B8CF31
:10039000A8CF21EE30E0833509F4B2CF843509F0DF
:1003A000A0CF20E0ADCF833709F4D2C0A0F52091D3
:1003B0002C0130912D01823609F4A2CF80F423EE76
:1003C00030E0873509F49CCF60F3883551F32091F4
:1003D0002A0130912B01813609F492CF82CF8037E8
:1003E00009F4A4C078F420912E0130912F018336B6
:1003F00009F486CF2091300130913101843609F41F
:100400007FCF6FCF813709F496C020911F028237CA
:1004100009F476CF66CF8A3709F4ACC0C8F42EE26F
:1004200030E0853709F46CCF20EE30E0853708F4F2
:1004300067CF883709F499C0893709F052CF2091E6
:10044000190230911A0240911B0250911C027BC08C
:10045000813809F4A6CF48F48B3709F48EC02EEE0C
:1004600030E0803809F44CCF3CCF883809F499CF7C
:10047000893909F036CF10920D0210920C021092B9
:100480000F0210920E02109211021092100210929E
:1004900013021092120234CF2091140230911502EF
:1004A0002F5F3F4F81E090E09093FF018093FE012A
:1004B00027CF8091F4019091F5012FEF30E0892B47
:1004C00009F41ECFC090F001D090F101E090F2014C
:1004D000F090F30164DEA7019601261B370B480B51
:1004E000590BCA01B9012DE730E040E050E094D645
:1004F00007CF20910C0230910D0235CF20910E02D2
:1005000030910F0230CF20911202309113022BCF85
:1005100020913201309133012F5F3F4F30933301EF
:1005200020933201EDCE22EE30E0EACE20911D0282
:1005300030911E021CCF20911D0230911E0240916D
:100540001F0250912002232F342F452F55270FCF04
:1005500020911D0230911E0240911F0250912002F5
:10056000252F332744275527CBCE209119023091D0
:100570001A02FDCE20911B02C3CE209119023091A8
:100580001A0240911B0250911C02EACFCF93DF93D5
:100590008130910561F49091D4018091D501981733
:1005A000F1F18EED91E017DE80933C01F4CF0297DC
:1005B000B1F58EED91E00FDEEC0190932B0180936D
:1005C0002A018EED91E007DE90932D0180932C019E
:1005D000C0933C01A197C430D10508F5CC0FDD1FB5
:1005E000FE01EC5CFE4F91838083CC5FDD4F288160
:1005F00039812130310599F4E4E0F2E030E020E087
:10060000419151914130510529F4D901AC5CBE4F63
:100610008D939C932E5F3F4F2830310589F7DF91F2
:10062000CF91089587FF04C08F778830D0F48F5E14
:1006300090E0FC01E258FF4F2491FC01EE59FF4F7E
:10064000E491EE2381F0F0E0EE0FFF1FE85AFF4F38
:10065000A591B491EC91E22381E090E031F480E047
:1006600008958FEFE5CF80E090E0089587FF04C004
:100670008F77883058F58F5E90E0FC01E45CFF4F87
:100680003491FC01E258FF4F2491FC01EE59FF4FD9
:10069000E491EE23D1F0332339F03330C9F4809163
:1006A00080008F7780938000F0E0EE0FFF1FEE5CFC
:1006B000FF4FA591B4918FB7611110C0F8949C9130
:1006C000E22FE095E923EC938FBF08958FEFD4CF0D
:1006D000343051F7809180008F7DE4CFF894EC9115
:1006E000E22BF1CFCF93DF9387FF04C08F77883061
:1006F00048F58F5E90E0FC01E258FF4F24918E593F
:100700009F4FFC0184918823D1F090E0880F991FBE
:10071000FC01E85DFF4FA591B491FC01EE5CFF4F39
:10072000C591D491611110C09FB7F8948C91E22FBC
:10073000E0958E238C932881E223E8839FBFDF918D
:10074000CF9108958FEFD6CF8FB7F894EC91E22B2D
:10075000EC938FBFF4CF1F920F920FB60F9211241C
:100760002F933F938F939F93AF93BF938091C70134
:100770009091C801A091C901B091CA013091C60100
:1007800026E0230F2D3768F129E8230F0396A11DDA
:10079000B11D2093C6018093C7019093C801A09317
:1007A000C901B093CA018091CB019091CC01A09175
:1007B000CD01B091CE010196A11DB11D8093CB0159
:1007C0009093CC01A093CD01B093CE01BF91AF9196
:1007D0009F918F913F912F910F900FBE0F901F907F
:1007E00018950296A11DB11DD4CF1F920F920FB67E
:1007F0000F9211240F900FBE0F901F9018951F920B
:100800000F920FB60F9211242F933F934F935F9344
:100810006F937F938F939F93AF93BF93EF93FF93C8
:100820008091B900887F803609F449C0E8F58832A4
:1008300009F4A6C018F5803109F49AC0B8F48823E9
:1008400009F4F8C0883009F493C0FF91EF91BF918B
:10085000AF919F918F917F916F915F914F913F9158
:100860002F910F900FBE0F901F901895883109F4AB
:1008700087C0803251F78093800114C0803409F41E
:100880009CC040F48033B9F38833F9F6809380013B
:1008900085ECAFC0803509F484C0883509F495C073
:1008A000883499F6B2DCD1CF883909F48CC038F598
:1008B000883729F050F4883611F0803731F683E01C
:1008C0008093D10110927F0157C0883809F47BC012
:1008D000803919F0803809F0B8CF80917F018032DB
:1008E00008F071C0E0917F0181E08E0F80937F015D
:1008F0008091BB00F0E0E15AFE4F80833DC0803B19
:1009000039F0E0F4803A09F479C0883A09F09DCFD3
:1009100084E08093D10110925E0110925D01E0911C
:10092000D801F091D901099580915D0181110FC025
:1009300081E080935D0110923D0109C0803C09F483
:10094000A7CF883C09F4A4CF883B09F07ECFE09183
:100950005E0181E08E0F80935E01F0E0E35CFE4F6C
:1009600080818093BB0090915E0180915D0129C0E0
:100970008091A3018093BB0085EC8093BC0065CF80
:100980009091A2018091A101981758F5E091A201E0
:1009900081E08E0F8093A201F0E0EF57FE4F80813F
:1009A000E9CFE091A20181E08E0F8093A2018091B6
:1009B000BB00F0E0EF57FE4F80839091A201809141
:1009C000A1019817C8F285E8D8CFE091A20181E093
:1009D0008E0F8093A2018091BB00F0E0EF57FE4F95
:1009E00080838091D00181115DCF81E08093CF0120
:1009F00084EA8093BC001092D10127CF85EC8093CC
:100A0000BC001092D10180917F01803230F4E091DE
:100A10007F01F0E0E15AFE4F108260917F0170E0AB
:100A2000E091D601F091D7018FE591E00995109200
:100A30007F010BCF1092800135CF93E095BD789464
:100A400080916E00816080936E0081E080938000D1
:100A50009093810086E880937A0014BEA895F8945C
:100A60000FB6F894A895809160008861809360002B
:100A7000109260000FBE80E88093610010926100C8
:100A800061E086E02FDE60E084E02CDE84E0CADDF9
:100A9000EC01019709F0A2C161E086E0E7DDD093A7
:100AA000FD01C093FC0178941092080161E084E19B
:100AB00019DE61E08FE016DE61E082E113DE61E0C5
:100AC00082E1D4DD61E085E00DDE61E085E0CEDD30
:100AD00060E087E007DE60E080E004DE60E081E067
:100AE00001DE60E082E0FEDD60E083E0FBDD61E0EE
:100AF00087E1F8DD60E087E1B9DD10921502109220
:100B0000140261E088E1EEDD61E088E1AFDD61E0E3
:100B100089E1E8DD61E089E1A9DD61E08AE1E2DD0A
:100B200061E08AE1A3DD3BDB60931D0270931E024E
:100B300080931F02909320026052714D8F4F9F4F00
:100B40006093190270931A0280931B0290931C0207
:100B500088E28093BA0084E790E09093D901809373
:100B6000D80180E890E09093D7018093D60110924D
:100B7000D5011092D4011092D3011092D20110929B
:100B8000D10181E08093D0011092CF0161E085E135
:100B90006DDD61E086E16ADD8091B9008E7F809332
:100BA000B9008091B9008D7F8093B90080E2809375
:100BB000B80085E48093BC0086EC92E09093DB0162
:100BC0008093DA0180E591E09093DD018093DC0170
:100BD00088E19EE00FB6F894A895809360000FBE60
:100BE0009093600060E082E141DDE8E04E2E512C00
:100BF00001E010E0F4E0AF2EB12CA2E06A2E712CDF
:100C00008091EA019091EB010196B201F2D29093AA
:100C1000EB018093EA01009759F02091F4013091A3
:100C2000F5012130310509F0E1C0029709F0DEC07D
:100C300061E084E11BDD1092EF011092EE01C9E149
:100C4000D1E06CE0262E62E0362E410170E0C72E26
:100C500071E0D72E88812296E5DC8130910509F07C
:100C6000C7C0D6018D939C938091EE019091EF01C6
:100C700001969093EF018093EE01B2E0CB0ED11C70
:100C8000E2E08E0E911CF1E0C132DF0719F7E8E0D7
:100C9000F1E090E080E0880F991F3291229121309D
:100CA000310509F4019621E0E030F207A1F79093B5
:100CB000ED018093EC01C091F401D091F501C130B8
:100CC000D10509F09CC06BDAC090F001D090F10121
:100CD000E090F201F090F3016C157D058E059F0503
:100CE00008F48DC060E086E0C1DC1092FD01109236
:100CF000FC011092F5011092F40161E085E0B6DC90
:100D000061E087E0B3DC60E087E0ECDC8091FC012F
:100D10009091FD010197C1F084E084DC892BA1F062
:100D20003EDA6B017C01C0921D02D0921E02E0925D
:100D30001F02F092200287E075DC019709F089C05C
:100D40001092FB011092FA012ADA60931D0270934F
:100D50001E0280931F02909320022091190230916D
:100D60001A0240911B0250911C02261737074807B0
:100D7000590708F099C181E0809318021092170278
:100D8000109216028091FE019091FF01019721F4CB
:100D90001092FF011092FE01E0911402F0911502F1
:100DA00030E020E02F5F3F4FCF01820F931FB5014E
:100DB00020D2EC01880F991FDC01A050BF4F4D914C
:100DC0005C91452B09F4A4C0845F9D4FDC018D919B
:100DD0009C91892B09F09CC020E0B9C060E086E0BE
:100DE00045DC1092FD011092FC015DCE60E021CF48
:100DF000F60111821082D4011D921C923ECF809187
:100E0000FC019091FD01892B09F486CF84E00ADC76
:100E1000019709F47BCFCD2B09F078CF1093F50122
:100E20000093F401BCD9605E714B8F4F9F4F60936C
:100E3000F0017093F1018093F2019093F30161E06E
:100E400087E050DC60E087E011DC60E085E00EDCEC
:100E50005DCF8091FA019091FB01892B99F460EDAF
:100E6000C60E67E0D61EE11CF11CC092F601D092BE
:100E7000F701E092F801F092F9011093FB01009361
:100E8000FA0162CF8091F6019091F701A091F801EB
:100E9000B091F9018C159D05AE05BF0508F054CF42
:100EA00061E086E0E3DB1093FD010093FC0110920A
:100EB000FB011092FA0110920101109200011092B0
:100EC0000D0210920C021092030110920201109276
:100ED0000F0210920E02109205011092040110925E
:100EE0001102109210021092070110920601109246
:100EF00013021092120260E087E1B8DB61E088E142
:100F0000B5DB61E089E1B2DB61E08AE1AFDB1CCFF8
:100F10002430310509F046CF83E184DB019709F0E5
:100F200026C144E853E090E080E0F1012191319145
:100F30001F012417350734F42534F2E03F0714F07D
:100F4000A901EC0101968430910579F721E0109216
:100F500005021092040210920702109206021092EB
:100F600009021092080210920B0210920A02CE019E
:100F7000880F991FFC01EC5FFD4F11830083222332
:100F800021F1845F9D4FDC01ED91FC9121E030E087
:100F9000CE01820F931FB5012CD1880F991FDC0160
:100FA000A45FBD4F4D915C914E1B5F0B4A5F5F4F3D
:100FB0004D30510528F48C5F9D4FDC010D931C933F
:100FC0002F5F3F4F2430310519F7ECE0EE2EE2E0C1
:100FD000FE2E90E080E0880F991FF7013291229158
:100FE0007F012130310509F40196F4E0EF16F2E0BB
:100FF000FF0689F79093010280930002F89454E071
:10100000852E52E0952E64E0C62ED12CD4018D9110
:101010009D914D01019751F4C6016EEF7FEFD8D03D
:101020008F5D9E4F60E0FC01808520DBF1E0CF1AF0
:10103000D10861F7D12CC12CD7018D919D917D01F3
:10104000892B31F461E0F601EF5DFE4F80810EDB0C
:10105000B2E0CB0ED11CE8E0CE16D10469F778944B
:10106000D0931502C093140280911D0290911E022C
:10107000A0911F02B09120028052914DAF4FBF4FFF
:101080004091160250911702052E000C660B770B4B
:10109000840F951FA61FB71F8093190290931A0201
:1010A000A0931B02B0931C02809118028823E9F1DF
:1010B00010921802809108018295880F880F807421
:1010C00080937C0080917A00806480937A00809184
:1010D0007A0086FDFCCF8091780020917900322F34
:1010E000282F8091140290911502880F991FFC01FE
:1010F000E45FFD4F318320838C5F9D4FDC018D9138
:101100009C91019791F4E4E0F2E090E080E041915D
:1011100051914130510529F4DC01A45FBD4F2D935D
:101120003C9302968830910591F78091020290914C
:10113000030201969093030280930202B30159D0F7
:10114000682F8FE093DA06D8EB0188ECC82ED12CFB
:10115000E12CF12CFFD76C1B7D0B683E734008F12E
:10116000C114D104E104F104A1F4A89549CD30E003
:1011700020E090E080E0D1014D915D911D012417A8
:10118000350714F49A01EC0101968430910599F722
:10119000DDCEB1E0CB1AD108E108F108C851DC4F2F
:1011A000D9CFC114D104E104F104A1F6DECFEEEDF4
:1011B000F1E01382128288EE93E0A0E0B0E0848335
:1011C0009583A683B7838DE091E091838083089512
:1011D0000024552704C0080E591F880F991F009737
:1011E00029F076956795B8F37105B9F7802D952F9D
:1011F000089597FB072E16F4009406D077FD08D0CB
:101200002DD007FC05D03EF4909581959F4F089511
:10121000709561957F4F0895A1E21A2EAA1BBB1B02
:10122000FD010DC0AA1FBB1FEE1FFF1FA217B307B2
:10123000E407F50720F0A21BB30BE40BF50B661FC8
:10124000771F881F991F1A9469F76095709580958C
:1012500090959B01AC01BD01CF010895AA1BBB1B5A
:1012600051E107C0AA1FBB1FA617B70710F0A61BA6
:10127000B70B881F991F5A95A9F780959095BC01C7
:10128000CD010895EE0FFF1F0590F491E02D099414
:04129000F894FFCF00
:1012940001000000000000000100000000400136D1
:1012A40001FE00EB00DC00DB000000010002000393
:0A12B400001700180019001A0000CE
:00000001FF
