:100000004DC071C070C06FC06EC06DC06CC06BC0A1
:100010006AC069C068C067C066C065C07CC363C091
:1000200062C061C060C0C1C300002D002400270071
:100030002A0000002E00250028002B0000000000F0
:1000400000000000000304000000000000000000A9
:10005000000000000000000000002C00230026002B
:10006000290004040404040404040202020202023B
:10007000020203030303030303010101010301025D
:1000800004081020408001020408102040808001F4
:10009000020408102001020408406F0711241FBE4B
:1000A000CFEFD2E0DEBFCDBF11E0A0E0B1E0E4ECE5
:1000B000FFE002C005900D92AC32B107D9F722E003
:1000C000ACE2B1E001C01D92A630B207E1F710E04A
:1000D000CEE4D0E003C02197FE016CD7CD34D10728
:1000E000D1F781D46DC78CCFE091D001F091D101CF
:1000F000309729F01092C7011092C6010994089513
:10010000CF93DF93AC01E091CE01F091CF01309716
:10011000F1F09091C9018091C8019817C0F090E06A
:10012000292F30E02617370754F4D901A256BE4FC5
:10013000240F351FE90128812C939F5FF1CF109286
:10014000C9016093C801CB01DF91CF910994DF9180
:10015000CF9108953FB7F8948091BF019091C0016D
:10016000A091C101B091C20126B5A89B05C02F3F47
:1001700019F00196A11DB11D3FBFBA2FA92F982FCD
:100180008827BC01CD01620F711D811D911D43E0C7
:10019000660F771F881F991F4A95D1F70895089514
:1001A000E091C9018091C801E81730F4F0E0E2560F
:1001B000FE4F808190E008958FEF9FEF089590911A
:1001C000C9018091C8012FEF3FEF981748F4E92F3C
:1001D000F0E0E256FE4F208130E09F5F9093C9012E
:1001E000C90108958091C8019091C901891B990B9B
:1001F000089585ED8093BC008091BC0084FDFCCF08
:100200001092C501089520915701260F3327331FFF
:1002100021323105ECF42091C501FC0190E080E031
:10022000243069F082E00895A09157012191AC013A
:10023000495C5E4FA40FB52FB11D2C930196861714
:1002400098F380915701680F6093570180E00895FB
:1002500081E00895CF93DF93CB01EA01642FD3DFD0
:10026000CE01DF91CF910895CF93DF931F92CDB749
:10027000DEB7698361E0CE010196C5DF81E090E0E1
:100280000F90DF91CF9108950F931F93E091360166
:10029000E051E23708F065C1F0E0E05BFE4F099401
:1002A00063C15FC15EC15DC15CC15BC15AC159C15F
:1002B00058C157C156C155C154C153C152C151C192
:1002C00050C168C06CC070C074C04BC14AC149C144
:1002D00048C174C079C045C144C143C142C141C194
:1002E00077C07BC087C03DC13CC13BC196C09AC0AE
:1002F00038C137C136C135C134C133C132C131C152
:10030000B7C02FC12EC12DC12CC12BC12AC129C1FB
:1003100028C127C126C125C124C123C122C121C1B1
:10032000ACC0B6C02FC0B9C0BBC0BCC0B9C0BDC096
:10033000B7C017C116C115C114C113C112C111C173
:1003400010C1B6C0BAC0BEC0C2C00BC10AC109C18B
:1003500008C107C106C105C104C103C102C101C171
:10036000BBC0BFC0CBC0CDC0D9C0DBC099C098C096
:10037000DBC0DFC0E7C0E9C0F4C0F3C0F2C0F1C029
:10038000EDC08EC02CED35E0622F82ED91E01F9123
:100390000F916ACF2091F0013091F101F5CF2091BA
:1003A000F2013091F301F0CF2091F4013091F50189
:1003B000EBCF2091F6013091F701E6CF2091EC01CF
:1003C0003091ED013327E0CF8091ED01282FDCCF74
:1003D0002091E6013091E701D7CF2091F8013091CB
:1003E000F9012F5F3F4F81E090E09093EF01809300
:1003F000EE01CACFEBE0F1E083E091E030E020E0F5
:10040000220F331F529142914130510511F42F5F59
:100410003F4F8E179F07A1F7B7CF20910001309172
:100420000101B2CF8091E4019091E5012FEF30E01E
:10043000892B09F4A9CF6091E0017091E1018091CD
:10044000E2019091E3014FB7F8940091E801109117
:10045000E9012091EA013091EB014FBF601B710B64
:10046000820B930B2DE730E040E050E06DD58CCF50
:100470002091EE013091EF0187CF2091340130912E
:1004800035012F5F3F4F30933501209334017CCFEE
:100490002091FA013091FB0177CF21EE30E074CF4B
:1004A00020E072CF22EE30E06FCF23EE30E06CCF51
:1004B00020912C0130912D0167CF20912E01309198
:1004C0002F0162CF20913001309131015DCF209119
:1004D00032013091330158CF209100023091010256
:1004E00071CF20910002309101024091020250919F
:1004F0000302232F342F452F552764CF209102026A
:1005000043CF2091000230910102409102025091AC
:100510000302252F33274427552736CF2CED30E013
:1005200033CF25E030E030CF2091FC013091FD0148
:1005300049CF2091FC013091FD014091FE01509185
:10054000FF01D7CF2091FE011FCF2091FC013091F8
:10055000FD014091FE015091FF01DBCF2EEE30E016
:1005600013CF28EE30E010CF22E130E00DCFCF9353
:10057000DF938130910561F49091C8018091C901A8
:10058000981731F182ED91E01ADE80933601F4CFB5
:100590000297F1F482ED91E012DEEC0190932D01CF
:1005A00080932C0182ED91E00ADE90932F018093DD
:1005B0002E01C09336019E012152310924303105AC
:1005C00050F4220F331FF901E051FE4F91838083D5
:1005D000DF91CF910895E697D9F790930101809329
:1005E0000001F6CF87FF04C08F778830D0F48F5E8C
:1005F00090E0FC01E258FF4F2491FC01EE59FF4FBF
:10060000E491EE2381F0F0E0EE0FFF1FE85AFF4F78
:10061000A591B491EC91E22381E090E031F480E087
:1006200008958FEFE5CF80E090E0089587FF04C044
:100630008F77883058F58F5E90E0FC01E45CFF4FC7
:100640003491FC01E258FF4F2491FC01EE59FF4F19
:10065000E491EE23D1F0332339F03330C9F48091A3
:1006600080008F7780938000F0E0EE0FFF1FEE5C3C
:10067000FF4FA591B4918FB7611110C0F8949C9170
:10068000E22FE095E923EC938FBF08958FEFD4CF4D
:10069000343051F7809180008F7DE4CFF894EC9155
:1006A000E22BF1CFCF93DF9387FF04C08F778830A1
:1006B00048F58F5E90E0FC01E258FF4F24918E597F
:1006C0009F4FFC0184918823D1F090E0880F991FFF
:1006D000FC01E85DFF4FA591B491FC01EE5CFF4F7A
:1006E000C591D491611110C09FB7F8948C91E22FFD
:1006F000E0958E238C932881E223E8839FBFDF91CE
:10070000CF9108958FEFD6CF8FB7F894EC91E22B6D
:10071000EC938FBFF4CF1F920F920FB60F9211245C
:100720002F933F938F939F93AF93BF938091E80153
:100730009091E901A091EA01B091EB013091BE01E5
:1007400026E0230F2D3768F129E8230F0396A11D1A
:10075000B11D2093BE018093E8019093E901A0931D
:10076000EA01B093EB018091BF019091C001A0918B
:10077000C101B091C2010196A11DB11D8093BF01BD
:100780009093C001A093C101B093C201BF91AF91FA
:100790009F918F913F912F910F900FBE0F901F90BF
:1007A00018950296A11DB11DD4CF1F920F920FB6BE
:1007B0000F9211242F933F934F935F936F937F93E7
:1007C0008F939F93AF93BF93EF93FF938091B90063
:1007D000887F803609F449C0E8F5883209F4A6C05C
:1007E00018F5803109F49AC0B8F4882309F4F8C0E8
:1007F000883009F493C0FF91EF91BF91AF919F9121
:100800008F917F916F915F914F913F912F910F90B9
:100810000FBE0F901F901895883109F487C0803261
:1008200051F780937A0114C0803409F49CC040F4DD
:100830008033B9F38833F9F680937A0185ECAFC041
:10084000803509F484C0883509F495C0883499F658
:10085000D0DCD1CF883909F48CC038F5883729F03D
:1008600050F4883611F0803731F683E08093C5016B
:100870001092790157C0883809F47BC0803919F08B
:10088000803809F0B8CF80917901803208F071C0CA
:10089000E091790181E08E0F809379018091BB0016
:1008A000F0E0E75AFE4F80833DC0803B39F0E0F432
:1008B000803A09F479C0883A09F09DCF84E08093AA
:1008C000C5011092580110925701E091CC01F091AE
:1008D000CD0109958091570181110FC081E080936E
:1008E00057011092370109C0803C09F4A7CF883C1A
:1008F00009F4A4CF883B09F07ECFE091580181E054
:100900008E0F80935801F0E0E95CFE4F8081809368
:10091000BB00909158018091570129C080919D01A1
:100920008093BB0085EC8093BC0065CF90919C01C7
:1009300080919B01981758F5E0919C0181E08E0F02
:1009400080939C01F0E0E558FE4F8081E9CFE09173
:100950009C0181E08E0F80939C018091BB00F0E0B0
:10096000E558FE4F808390919C0180919B019817E0
:10097000C8F285E8D8CFE0919C0181E08E0F80938A
:100980009C018091BB00F0E0E558FE4F8083809190
:10099000C40181115DCF81E08093C30184EA80931B
:1009A000BC001092C50127CF85EC8093BC0010924B
:1009B000C50180917901803230F4E0917901F0E055
:1009C000E75AFE4F10826091790170E0E091CA0110
:1009D000F091CB0189E591E00995109279010BCF57
:1009E00010927A0135CF83E085BD789490916E00A6
:1009F000916090936E00C1E0C0938000809381006D
:100A000096E890937A0014BEA895F8940FB6F894DF
:100A1000A89590916000986190936000109260009A
:100A20000FBE90E890936100809361007894C0932A
:100A3000020160E080E036DE60E081E033DE60E00D
:100A400082E030DE60E083E02DDE61E084E12ADEDA
:100A500060E088E027DE60E089E024DE61E08AE093
:100A600021DE61E087E11EDE60E087E1DFDD1092DC
:100A7000F9011092F80161E088E114DE61E088E19B
:100A8000D5DD61E089E10EDE61E089E1CFDD61E085
:100A90008AE108DE61E08AE1C9DD2FB7F894809130
:100AA000E8019091E901A091EA01B091EB012FBF1B
:100AB0008093000290930102A0930202B09303027C
:100AC00084529A4FAF4FBF4F8093FC019093FD012A
:100AD000A093FE01B093FF0188E28093BA0084E7FF
:100AE00090E09093CD018093CC0180E890E09093CA
:100AF000CB018093CA011092C9011092C8011092D3
:100B0000C7011092C6011092C501C093C401109292
:100B1000C30161E085E18ADD61E086E187DD8091E6
:100B2000B9008E7F8093B9008091B9008D7F80934A
:100B3000B90080E28093B80085E48093BC0087EB25
:100B400092E09093CF018093CE0184E491E0909362
:100B5000D1018093D00188E19EE00FB6F894A8956A
:100B6000809360000FBE90936000E2E0EE2EF12CC7
:100B700004E010E080910402909105020196B70113
:100B8000D0D18093040290930502682F84E14EDD5A
:100B900088E028DDEC018FB7F8948090E801909010
:100BA000E901A090EA01B090EB018FBF80920002B2
:100BB00090920102A0920202B09203028091E4019D
:100BC0009091E501892B09F4D5C08091E0019091C5
:100BD000E101A091E201B091E30188169906AA060D
:100BE000BB0638F060E089E05DDD1092E50110920F
:100BF000E401D093DF01C093DE011092E70110926F
:100C0000E601CBE1D1E063E0A62E61E0B62E70EF05
:100C1000C72E71E0D72E460188812296E3DC813011
:100C2000910509F0D5C0D5018D939C938091E60183
:100C30009091E70101969093E7018093E601B2E07D
:100C4000AB0EB11CE2E08E0E911CF1E0C332DF0767
:100C500019F72FB7F8948091E8019091E901A091DC
:100C6000EA01B091EB012FBF809300029093010243
:100C7000A0930202B09303024091FC015091FD0148
:100C80006091FE017091FF01481759076A077B07C1
:100C900008F051C0E091F801F091F90130E020E056
:100CA0002F5F3F4FCF01820F931FB8013AD1EC0164
:100CB000880F991FDC01AD5FBE4F4D915C91452BB4
:100CC00009F48DC080519E4FDC018D919C91892B40
:100CD00009F085C0F894C090F801D090F901CC16C5
:100CE000DD0681F0FE01EE0FFF1FED5DFE4F60E0BF
:100CF00080819CDCF601EE0FFF1FED5DFE4F61E091
:100D0000808194DC7894D093F901C093F8018091AC
:100D1000000290910102A0910202B091030284525C
:100D20009A4FAF4FBF4F8093FC019093FD01A0936A
:100D3000FE01B093FF018091FA019091FB010196B1
:100D40009093FB018093FA0105DAEB0189E1882E8B
:100D5000912CA12CB12CFED96C1B7D0B683E7340ED
:100D600008F4B6C081149104A104B10409F0A8C02C
:100D7000A89500CFC090DE01D090DF0181E0C816B9
:100D8000D10409F036CF209709F033CF61E089E034
:100D900089DC61E089E04ADCD092E501C092E4019F
:100DA00080910001909101016DE770E0A9D0092EBA
:100DB000000CAA0BBB0B880D991DAA1DBB1D8093AF
:100DC000E0019093E101A093E201B093E30111CF20
:100DD000F50111821082D4011D921C9230CF243073
:100DE000310509F05DCF809102018295880F880F4F
:100DF0008074826080937C0080917A00806480930C
:100E00007A0080917A0086FDFCCF909178008091E5
:100E100079008927982789279093ED018093EC0129
:100E200080389105DCF18091EE019091EF010197FE
:100E3000E1F0C090F801D090F90130E020E02F5FA0
:100E40003F4FC601820F931FB8016BD0EC01FC012C
:100E5000EE0FFF1FED5FFE4F80819181892B09F01E
:100E600039CF2430310559F735CF1092EF01109268
:100E7000EE014FEF50E090E080E0F60121913191DA
:100E80006F01241735072CF4223C310514F0A90119
:100E9000EC0101968430910581F71CCF30E020E011
:100EA00090E080E0D6014D915D916D0124173507EA
:100EB00014F49A01EC0101968430910599F70ACF58
:100EC000B1E08B1A9108A108B108C851DC4F43CF9B
:100ED00081149104A104B10409F03DCF49CFE2EDA2
:100EE000F1E01382128288EE93E0A0E0B0E0848308
:100EF0009583A683B7838FE091E0918380830895E3
:100F00000024552704C0080E591F880F991F009709
:100F100029F076956795B8F37105B9F7802D952F6F
:100F2000089597FB072E16F4009406D077FD08D09D
:100F30002DD007FC05D03EF4909581959F4F0895E4
:100F4000709561957F4F0895A1E21A2EAA1BBB1BD5
:100F5000FD010DC0AA1FBB1FEE1FFF1FA217B30785
:100F6000E407F50720F0A21BB30BE40BF50B661F9B
:100F7000771F881F991F1A9469F76095709580955F
:100F800090959B01AC01BD01CF010895AA1BBB1B2D
:100F900051E107C0AA1FBB1FA617B70710F0A61B79
:100FA000B70B881F991F5A95A9F780959095BC019A
:100FB000CD010895EE0FFF1F0590F491E02D0994E7
:040FC000F894FFCFD3
:100FC4001E000101000000000000000000000034C9
:100FD400012A01F200DF00D000CF0000000100026E
:0C0FE4000003001700180019001A00009C
:00000001FF
