:100000004DC071C070C06FC06EC06DC06CC06BC0A1
:100010006AC069C068C067C066C065C020C463C0EC
:1000200062C061C060C065C400002D0024002700CC
:100030002A0000002E00250028002B0000000000F0
:1000400000000000000304000000000000000000A9
:10005000000000000000000000002C00230026002B
:10006000290004040404040404040202020202023B
:10007000020203030303030303010101010301025D
:1000800004081020408001020408102040808001F4
:1000900002040810200102040840510811241FBE68
:1000A000CFEFD2E0DEBFCDBF11E0A0E0B1E0E6E6E9
:1000B000F1E102C005900D92AA32B107D9F722E012
:1000C000AAE2B1E001C01D92AA30B207E1F710E048
:1000D000CEE4D0E003C02197FE013DD8CD34D10756
:1000E000D1F725D53EC88CCFE091DA01F091DB0144
:1000F000309729F01092D1011092D00109940895FF
:10010000CF93DF93AC01E091D801F091D901309702
:10011000F1F09091D3018091D2019817C0F090E056
:10012000292F30E02617370754F4D901AC55BE4FBC
:10013000240F351FE90128812C939F5FF1CF109286
:10014000D3016093D201CB01DF91CF910994DF916C
:10015000CF9108953FB7F8948091C9019091CA0159
:10016000A091CB01B091CC0126B5A89B05C02F3F33
:1001700019F00196A11DB11D3FBFBA2FA92F982FCD
:100180008827BC01CD01620F711D811D911D43E0C7
:10019000660F771F881F991F4A95D1F708952FB7CB
:1001A000F8946091C5017091C6018091C70190914A
:1001B000C8012FBF08950895E091D3018091D20125
:1001C000E81730F4F0E0EC55FE4F808190E00895A0
:1001D0008FEF9FEF08959091D3018091D2012FEF7F
:1001E0003FEF981748F4E92FF0E0EC55FE4F2081DF
:1001F00030E09F5F9093D301C90108958091D201AF
:100200009091D301891B990B089585ED8093BC00D3
:100210008091BC0084FDFCCF1092CF010895209105
:100220005D01260F3327331F21323105ECF4209175
:10023000CF01FC0190E080E0243069F082E0089575
:10024000A0915D012191AC01435C5E4FA40FB52FDD
:10025000B11D2C930196861798F380915D01680F6C
:1002600060935D0180E0089581E00895CF93DF936E
:10027000CB01EA01642FD3DFCE01DF91CF91089546
:10028000CF93DF931F92CDB7DEB7698361E0CE01D4
:100290000196C5DF81E090E00F90DF91CF91089546
:1002A000CF92DF92EF92FF92E0913C01E051E23772
:1002B00008F058C1F0E0E25AFE4F099456C152C10D
:1002C00051C150C14FC14EC14DC14CC14BC14AC1BA
:1002D00049C148C147C146C145C144C143C16AC0C3
:1002E0006EC072C076C03EC13DC13CC13BC13AC187
:1002F00039C138C137C136C135C134C16FC073C0CF
:100300007FC030C12FC12EC18EC092C02BC12AC167
:1003100029C128C127C126C125C124C1A9C022C124
:1003200021C120C11FC11EC11DC11CC11BC11AC1D9
:1003300019C118C117C116C115C114C19EC0A8C0EA
:100340002FC0ABC0ADC0AEC0ABC0AFC0A9C00AC16A
:1003500009C108C107C106C105C104C103C1A8C0C4
:10036000ACC0B0C0B4C0FEC0FDC0FCC0FBC0FAC091
:10037000F9C0F8C0F7C0F6C0F5C0F4C0ADC0B2C057
:10038000BEC0C0C0CCC0CEC08BC08AC0CEC0D2C0A0
:10039000DAC0DCC0E7C0E6C0E5C0E4C0E0C080C0B1
:1003A0002CED35E0622F8CED91E0FF90EF90DF9027
:1003B000CF9066CF2091F6013091F701F3CF2091D5
:1003C000F8013091F901EECF2091FA013091FB0153
:1003D000E9CF2091FC013091FD01E4CF2091EA01A9
:1003E0003091EB01DFCF2091FE013091FF012F5FB3
:1003F0003F4F81E090E09093F5018093F401D2CFDC
:10040000EAE0F1E082E091E030E020E0220F331FEB
:10041000529142914130510511F42F5F3F4F8E1799
:100420009F07A1F7BFCF2091000130910101BACF02
:100430008091F0019091F1012FEF30E0892B09F4C8
:10044000B1CFC090EC01D090ED01E090EE01F090C2
:10045000EF01A5DEA7019601261B370B480B590BB0
:10046000CA01B9012DE730E040E050E03ED69ACF16
:100470002091F4013091F50195CF20913A0130910E
:100480003B012F5F3F4F30933B0120933A018ACFCE
:10049000209100023091010285CF21EE30E082CF21
:1004A00020E080CF22EE30E07DCF23EE30E07ACF27
:1004B000209132013091330175CF20913401309178
:1004C000350170CF20913601309137016BCF2091EB
:1004D00038013091390166CF209106023091070230
:1004E000332760CF20910602309107024091080225
:1004F00050910902232F342F452F5527F1CF2091FA
:10050000080250CF20910602309107024091080264
:1005100050910902252F33274427552743CF2CED2F
:1005200030E040CF25E030E03DCF20910202309115
:100530000302D6CF209102023091030240910402BF
:1005400050910502D7CF209104022CCF20910202B6
:10055000309103024091040250910502DBCF2EEE50
:1005600030E020CF28EE30E01DCF24E130E01ACF7C
:10057000CF93DF938130910569F49091D2018091FE
:10058000D301981709F441C08CED91E024DE8093EB
:100590003C01F3CF0297C9F58CED91E01CDEEC0134
:1005A00090933301809332018CED91E014DE9093AF
:1005B000350180933401C0933C019E0121523109E1
:1005C0002430310528F5220F331FF901EA50FE4F80
:1005D00091838083265D3E4FF90120813181213056
:1005E000310599F4EAE2F1E030E020E041915191E7
:1005F0004130510529F4D901AA50BE4F8D939C93E7
:100600002E5F3F4F2830310589F7DF91CF91089554
:10061000E697D9F79093010180930001F6CF87FF09
:1006200004C08F778830D0F48F5E90E0FC01E258F0
:10063000FF4F2491FC01EE59FF4FE491EE2381F02E
:10064000F0E0EE0FFF1FE85AFF4FA591B491EC9137
:10065000E22381E090E031F480E008958FEFE5CF70
:1006600080E090E0089587FF04C08F77883058F5C8
:100670008F5E90E0FC01E45CFF4F3491FC01E25896
:10068000FF4F2491FC01EE59FF4FE491EE23D1F08E
:10069000332339F03330C9F4809180008F77809311
:1006A0008000F0E0EE0FFF1FEE5CFF4FA591B491CC
:1006B0008FB7611110C0F8949C91E22FE095E92367
:1006C000EC938FBF08958FEFD4CF343051F78091E2
:1006D00080008F7DE4CFF894EC91E22BF1CF6F9204
:1006E0007F928F929F92AF92BF92CF92DF92EF92C2
:1006F000FF920F931F93CF93DF93EC01F894009137
:10070000FE011091FF014C01880C991C0817190774
:10071000D1F060E0F401E65EFE4F8081A4DF81E06D
:1007200090E0F401E65DFE4F91838083000F111F7E
:10073000F801E65EFE4F61E0808195DFF801E65D3D
:10074000FE4F118210829CE1C92E91E0D92E2AE23F
:10075000E22E21E0F22E01E010E034E0632E712C55
:10076000C4018A509E4F4C01AA24A394B12CF601D7
:100770002081F2E0CF0ED11CC8018C0F9D1FB30168
:10078000A1D4FC01EE0FFF1FEA50FE4F8081918142
:10079000F40140815181841B950B0296F701059766
:1007A00008F5B382A28260E0822F5DDF0F5F1F4FEA
:1007B000F2E0EF0EF11C04301105C9F67894D093E5
:1007C000FF01C093FE01DF91CF911F910F91FF9028
:1007D000EF90DF90CF90BF90AF909F908F907F90E1
:1007E0006F9008951382128261E0DECFCF93DF9382
:1007F00087FF04C08F77883048F58F5E90E0FC015A
:10080000E258FF4F24918E599F4FFC018491882319
:10081000D1F090E0880F991FFC01E85DFF4FA59192
:10082000B491FC01EE5CFF4FC591D491611110C0F1
:100830009FB7F8948C91E22FE0958E238C932881BA
:10084000E223E8839FBFDF91CF9108958FEFD6CF4A
:100850008FB7F894EC91E22BEC938FBFF4CF1F92FB
:100860000F920FB60F9211242F933F938F939F9364
:10087000AF93BF938091C5019091C601A091C7012C
:10088000B091C8013091C40126E0230F2D3768F1E3
:1008900029E8230F0396A11DB11D2093C401809365
:1008A000C5019093C601A093C701B093C801809180
:1008B000C9019091CA01A091CB01B091CC010196E0
:1008C000A11DB11D8093C9019093CA01A093CB01D2
:1008D000B093CC01BF91AF919F918F913F912F9198
:1008E0000F900FBE0F901F9018950296A11DB11D7D
:1008F000D4CF1F920F920FB60F9211242F933F93D4
:100900004F935F936F937F938F939F93AF93BF9317
:10091000EF93FF938091B900887F803609F449C036
:10092000E8F5883209F4A6C018F5803109F49AC0B8
:10093000B8F4882309F4F8C0883009F493C0FF9113
:10094000EF91BF91AF919F918F917F916F915F9147
:100950004F913F912F910F900FBE0F901F901895C0
:10096000883109F487C0803251F78093800114C028
:10097000803409F49CC040F48033B9F38833F9F62D
:100980008093800185ECAFC0803509F484C0883540
:1009900009F495C0883499F638DCD1CF883909F448
:1009A0008CC038F5883729F050F4883611F080373C
:1009B00031F683E08093CF0110927F0157C08838D1
:1009C00009F47BC0803919F0803809F0B8CF8091E4
:1009D0007F01803208F071C0E0917F0181E08E0FCD
:1009E00080937F018091BB00F0E0E15AFE4F80834D
:1009F0003DC0803B39F0E0F4803A09F479C0883A90
:100A000009F09DCF84E08093CF0110925E01109297
:100A10005D01E091D601F091D701099580915D01CA
:100A200081110FC081E080935D0110923D0109C0EA
:100A3000803C09F4A7CF883C09F4A4CF883B09F097
:100A40007ECFE0915E0181E08E0F80935E01F0E049
:100A5000E35CFE4F80818093BB0090915E018091AA
:100A60005D0129C08091A3018093BB0085EC809338
:100A7000BC0065CF9091A2018091A101981758F513
:100A8000E091A20181E08E0F8093A201F0E0EF5788
:100A9000FE4F8081E9CFE091A20181E08E0F80932B
:100AA000A2018091BB00F0E0EF57FE4F8083909150
:100AB000A2018091A1019817C8F285E8D8CFE091F2
:100AC000A20181E08E0F8093A2018091BB00F0E033
:100AD000EF57FE4F80838091CE0181115DCF81E081
:100AE0008093CD0184EA8093BC001092CF0127CF80
:100AF00085EC8093BC001092CF0180917F01803201
:100B000030F4E0917F01F0E0E15AFE4F10826091F5
:100B10007F0170E0E091D401F091D5018FE591E083
:100B2000099510927F010BCF1092800135CF83E0A1
:100B300085BD789490916E00916090936E00C1E0B5
:100B4000C09380008093810096E890937A0014BE51
:100B5000A895F8940FB6F894A895909160009861C4
:100B600090936000109260000FBE90E89093610037
:100B700080936100789461E084E138DE60E084E095
:100B800035DE60E086E032DE61E085E02FDE61E0A8
:100B900085E069DD60E080E029DE60E081E026DE5E
:100BA00060E082E023DE60E083E020DE61E087E158
:100BB0001DDE60E087E157DD1092FF011092FE011B
:100BC00061E088E113DE61E088E14DDD61E089E10B
:100BD0000DDE61E089E147DD61E08AE107DE61E089
:100BE0008AE141DDDCDA60930602709307028093AC
:100BF00008029093090264527A4F8F4F9F4F60937F
:100C0000020270930302809304029093050288E22B
:100C10008093BA0084E790E09093D7018093D60147
:100C200080E890E09093D5018093D4011092D30195
:100C30001092D2011092D1011092D0011092CF01E6
:100C4000C093CE011092CD0161E085E10CDD61E041
:100C500086E109DD8091B9008E7F8093B900809193
:100C6000B9008D7F8093B90080E28093B80085E45D
:100C70008093BC0088EB92E09093D9018093D801D7
:100C800080E591E09093DB018093DA0188E19EE0BA
:100C90000FB6F894A895809360000FBE9093600003
:100CA00068E0462E512C7EE0372E66246394712C2A
:100CB000F4E0EF2EF12C8091E8019091E90101968A
:100CC000B20100D29093E9018093E80161E0892BA1
:100CD00009F060E084E1C7DC8091F2019091F301BA
:100CE000019709F48DC083E19ADC019709F488C06B
:100CF0000FB6F894A8958091600088618093600099
:100D0000109260000FBE90E080E0E9DC60E086E0D9
:100D10006DDD60E085E06ADD60E087E167DD60E071
:100D200088E164DD60E089E161DD60E08AE15EDD4B
:100D300060E084E15BDD789480916800846080935A
:100D4000680080916D00806180936D0080916800E3
:100D500082608093680080916C00846080936C0056
:100D600083B7897F846083BF83B7816083BF83B784
:100D7000816083BF889583B78E7F83BFF89414BE4C
:100D80001BBA1092680013BEA89561E084E12EDDC5
:100D900061E085E02BDD61E085E065DC61E087E115
:100DA00025DD60E087E15FDC61E088E11FDD61E077
:100DB00088E159DC61E089E119DD61E089E153DC1A
:100DC00061E08AE113DD61E08AE14DDC1092F70118
:100DD0001092F6011092F9011092F8011092FB01A5
:100DE0001092FA011092FD011092FC01789488E1B2
:100DF0000FB6F894A895809360000FBE3092600003
:100E00001092EB011092EA01C2E2D1E052E0C52E4D
:100E100051E0D52E06EF11E0580188812296FFDBC4
:100E2000F6018130910509F0B5C0918380838091EE
:100E3000EA019091EB0101969093EB018093EA0116
:100E4000F2E0CF0ED11C82E0A80EB11CE1E0CA3264
:100E5000DE0719F78091F2019091F301892B29F1B6
:100E600084E0DDDB0197D9F08091F0019091F101F0
:100E7000892B09F095C07092F1016092F0018FD931
:100E80006A55714F8F4F9F4F6093EC017093ED0146
:100E90008093EE019093EF0160E085E0E4DB8091C8
:100EA000F2019091F301019771F084E0B8DB892B96
:100EB00051F061E086E09ADC61E086E0D4DB70927C
:100EC000F3016092F2016BD94B015C018092060242
:100ED00090920702A0920802B09209028091020249
:100EE00090910302A0910402B09105028815990522
:100EF000AA05BB0580F5C090FE01D090FF0130E04F
:100F000020E02F5F3F4FC9018C0D9D1DB701DAD046
:100F1000EC01880F991FFC01EE5FFE4F408151816B
:100F2000452B09F45EC08A509E4FFC01808191815F
:100F3000892B09F056C0CE01D2DBFCED8F0EF5E017
:100F40009F1EA11CB11C8092020290920302A092EB
:100F50000402B09205028091000290910102019674
:100F60009093010280930002F5D8EB0189E1882E6D
:100F7000912CA12CB12CEED86C1B7D0B683E7340DC
:100F800008F488C081149104A104B10409F07AC066
:100F9000A89591CE11821082F5011182108250CF56
:100FA000FED88090EC019090ED01A090EE01B09001
:100FB000EF01681579058A059B0508F470CF60E09C
:100FC00086E051DB1092F3011092F2011092F101D0
:100FD0001092F00161E085E046DB60E086E006DC2F
:100FE0005ECF2430310509F08CCF83E118DB019707
:100FF000B9F58091F4019091F50130E020E001977E
:10100000E9F41092F5011092F4014FEF50E090E0F6
:1010100080E0F801219131918F01241735072CF4DC
:10102000223C310514F0A901EC01019684309105B0
:1010300081F781CF2430310509F47DCF2F5F3F4FF9
:10104000C9018C0D9D1DB7013DD0EC01FC01EE0FD7
:10105000FF1FEE5FFE4F80819181892B59F36BCF8B
:1010600030E020E090E080E0F801419151918F0163
:101070002417350714F49A01EC0101968430910588
:1010800099F759CF81E0881A9108A108B108C85191
:10109000DC4F71CF81149104A104B10409F06BCF2E
:1010A00077CFECEDF1E01382128288EE93E0A0E0BE
:1010B000B0E084839583A683B7838EE091E091832B
:1010C0008083089597FB072E16F4009406D077FDD1
:1010D00008D02DD007FC05D03EF4909581959F4F08
:1010E0000895709561957F4F0895A1E21A2EAA1B6D
:1010F000BB1BFD010DC0AA1FBB1FEE1FFF1FA217C8
:10110000B307E407F50720F0A21BB30BE40BF50BC4
:10111000661F771F881F991F1A9469F7609570954D
:10112000809590959B01AC01BD01CF010895AA1B4C
:10113000BB1B51E107C0AA1FBB1FA617B70710F0C2
:10114000A61BB70B881F991F5A95A9F780959095F4
:10115000BC01CD010895EE0FFF1F0590F491E02D25
:061160000994F894FFCF92
:101166001E00010000000000000000000000400119
:101176003601FE00EB00DC00DB001700180019004A
:0A1186001A0000000100020003003F
:00000001FF
