:100000004DC071C070C04CC44BC44AC449C46BC01D
:100010006AC069C068C067C066C065C0F7C363C016
:1000200062C061C060C046C400002D0024002700EB
:100030002A0000002E00250028002B0000000000F0
:1000400000000000000304000000000000000000A9
:10005000000000000000000000002C00230026002B
:10006000290004040404040404040202020202023B
:10007000020203030303030303010101010301025D
:1000800004081020408001020408102040808001F4
:1000900002040810200102040840110911241FBEA7
:1000A000CFEFD2E0DEBFCDBF22E0AAE2B1E001C0D7
:1000B0001D92A731B207E1F711E0A0E0B1E0E4EC56
:1000C000F2E102C005900D92AA32B107D9F710E013
:1000D000CEE4D0E003C02197FE01ECD8CD34D107A7
:1000E000D1F706D5EDC88CCFE091D401F091D501C0
:1000F000309729F01092CB011092CA01099408950B
:10010000CF93DF93AC01E091D201F091D30130970E
:10011000F1F09091CD018091CC019817C0F090E062
:10012000292F30E02617370754F4D901A456BE4FC3
:10013000240F351FE90128812C939F5FF1CF109286
:10014000CD016093CC01CB01DF91CF910994DF9178
:10015000CF9108953FB7F8948091C3019091C40165
:10016000A091C501B091C60126B5A89B05C02F3F3F
:1001700019F00196A11DB11D3FBFBA2FA92F982FCD
:100180008827BC01CD01620F711D811D911D43E0C7
:10019000660F771F881F991F4A95D1F70895CF9250
:1001A000DF92EF92FF92CF93DF936B017C01D2DF5E
:1001B000EB01D0DF6C1B7D0B683E7340A0F0C114D7
:1001C000D104E104F10439F4DF91CF91FF90EF9075
:1001D000DF90CF90089581E0C81AD108E108F108B6
:1001E000C851DC4FE6CFC114D104E104F10409F792
:1001F000EBCF2FB7F8946091BF017091C00180914F
:10020000C1019091C2012FBF08950895E091CD01E1
:100210008091CC01E81730F4F0E0E456FE4F808185
:1002200090E008958FEF9FEF08959091CD01809118
:10023000CC012FEF3FEF981748F4E92FF0E0E45698
:10024000FE4F208130E09F5F9093CD01C90108955A
:100250008091CC019091CD01891B990B089585ED7A
:100260008093BC008091BC0084FDFCCF1092C9013A
:10027000089520915501260F3327331F2132310570
:10028000ECF42091C901FC0190E080E0243069F099
:1002900082E00895A09155012191AC014B5C5E4F25
:1002A000A40FB52FB11D2C930196861798F380915A
:1002B0005501680F6093550180E0089581E008952D
:1002C000CF93DF93CB01EA01642FD3DFCE01DF911F
:1002D000CF910895CF93DF931F92CDB7DEB7698397
:1002E00061E0CE010196C5DF81E090E00F90DF91E3
:1002F000CF910895CF93DF938130910591F4909140
:10030000CC018091CD01981709F445C064E670E0F6
:1003100080E090E044DF86ED91E087DF8093340158
:10032000EECF0297C1F564E670E080E090E037DF41
:1003300086ED91E07ADFEC0164E670E080E090E029
:100340002EDF86ED91E071DFC0933401A197C430B8
:10035000D10508F5CC0FDD1FFE01E45DFE4F918352
:100360008083C650DE4F288139812130310599F4D0
:10037000EAEFF1E030E020E0419151914130510548
:1003800029F4D901A45DBE4F8D939C932E5F3F4FFE
:100390002830310589F7DF91CF91089587FF04C098
:1003A0008F778830D0F48F5E90E0FC01E258FF4FE9
:1003B0002491FC01EE59FF4FE491EE2381F0F0E02F
:1003C000EE0FFF1FE85AFF4FA591B491EC91E22385
:1003D00081E090E031F480E008958FEFE5CF80E098
:1003E00090E0089587FF04C08F77883058F58F5EBE
:1003F00090E0FC01E45CFF4F3491FC01E258FF4FB8
:100400002491FC01EE59FF4FE491EE23D1F0332308
:1004100039F03330C9F4809180008F778093800069
:10042000F0E0EE0FFF1FEE5CFF4FA591B4918FB788
:10043000611110C0F8949C91E22FE095E923EC93B0
:100440008FBF08958FEFD4CF343051F78091800063
:100450008F7DE4CFF894EC91E22BF1CFA0E0B1E0F6
:1004600011961C921E92E2E0F2E011821082139625
:100470001C921E9212971382128215961C921E9243
:1004800014971582148217961C921E921697178243
:10049000168260E087E1A6DF61E088E1A3DF61E02A
:1004A00089E1A0DF61E08AE19DCFCF93DF93809166
:1004B0003401863509F4A9C008F091C0873309F4E6
:1004C00016C108F051C0C0913201D091330184327D
:1004D000D9F028F5C0912C01D0912D018132A1F0E5
:1004E00038F4CFE1D0E0803179F0C8EED0E00CC034
:1004F000C0912E01D0912F01823231F0C091300194
:10050000D0913101833289F764E670E080E090E0B9
:1005100046DE6C2F86ED91E0DF91CF91DBCEC0916E
:10052000E401D091E501823379F370F4C091E601E2
:10053000D091E701803341F3C0910A02D0910B02C0
:100540002196813309F3D1CFC091F601D091F70103
:100550008333D1F2843349F683E120DF31E0019720
:1005600009F030E0C32FD0CF803509F4E1C000F5A9
:10057000823409F4D3C088F4803409F4C9C08134CA
:1005800009F0B3CF8091020290910302959587956F
:1005900095958795EC01DD27B7CF833409F4C3C067
:1005A000843409F0A2CF8091080290910902EECF25
:1005B000C1EAD0E0833509F4A7CF48F4813509F4C6
:1005C000A8C0C0EEDEE2823509F49ECF8ECF84351E
:1005D000E1F0C2EAD0E0853509F496CF86CF8237C4
:1005E00009F4B8C0F0F5C0910001D0910101813645
:1005F00009F48ACF60F4883541F008F4A3C0893546
:1006000009F4A0C08A3509F070CFC0E07DCFC09159
:100610000601D0910701843609F476CF78F4C091B1
:100620000201D0910301823609F46ECFC09104011A
:10063000D0910501833609F467CF57CF803709F48D
:1006400084C0813709F051CF809113029091140238
:10065000A0911502B0911602892F9A2FAB2FBB27BC
:1006600099CF8A3709F48DC0F0F4CEE2D0E0853717
:1006700009F44ACF48F4833709F470C0C0EED0E0E3
:10068000843709F441CF31CF883709F475C08937F1
:1006900009F02BCF80910F0290911002A0911102CE
:1006A000B0911202D9CF813809F4AFCF48F48B371B
:1006B00009F46AC0CEEAD0E0803809F425CF15CF1E
:1006C000883809F4A2CF893909F00FCF10920302BC
:1006D0001092020210920502109204021092070278
:1006E0001092060210920902109208020DCF80911A
:1006F000EC019091ED01CFEFD0E0892B09F404CF0C
:10070000C091E801D091E90174DDC61BD70BFCCE86
:10071000A5DEC091F801D091F901F6CE80910402D6
:100720009091050233CF80910602909107022ECF5F
:10073000C0912A01D0912B012196D0932B01C09317
:100740002A01E2CEC3EAD0E0DFCEC0911302D091FD
:10075000140221CF80911502C82FD6CE80911302AA
:1007600090911402A0911502B09116028B2F992737
:10077000AA27BB27EC01C8CEC0910F02D09110026E
:100780000ACF80911102E8CF80910F029091100260
:10079000A0911102B0911202E9CFCF93DF9387FFAE
:1007A00004C08F77883048F58F5E90E0FC01E258F6
:1007B000FF4F24918E599F4FFC0184918823D1F0E3
:1007C00090E0880F991FFC01E85DFF4FA591B4915F
:1007D000FC01EE5CFF4FC591D491611110C09FB731
:1007E000F8948C91E22FE0958E238C932881E2235C
:1007F000E8839FBFDF91CF9108958FEFD6CF8FB75A
:10080000F894EC91E22BEC938FBFF4CF1F920F92F0
:100810000FB60F9211242F933F938F939F93AF9313
:10082000BF938091BF019091C001A091C101B0918F
:10083000C2013091BE0126E0230F2D3768F129E86F
:10084000230F0396A11DB11D2093BE018093BF010C
:100850009093C001A093C101B093C2018091C301E4
:100860009091C401A091C501B091C6010196A11D4E
:10087000B11D8093C3019093C401A093C501B093AF
:10088000C601BF91AF919F918F913F912F910F9092
:100890000FBE0F901F9018950296A11DB11DD4CFC9
:1008A0001F920F920FB60F9211240F900FBE0F9050
:1008B0001F9018951F920F920FB60F9211242F932D
:1008C0003F934F935F936F937F938F939F93AF93D8
:1008D000BF93EF93FF938091B900887F803609F42E
:1008E00049C0E8F5883209F4A6C018F5803109F44A
:1008F0009AC0B8F4882309F4F8C0883009F493C08A
:10090000FF91EF91BF91AF919F918F917F916F91E7
:100910005F914F913F912F910F900FBE0F901F90BD
:100920001895883109F487C0803251F78093780197
:1009300014C0803409F49CC040F48033B9F3883388
:10094000F9F68093780185ECAFC0803509F484C056
:10095000883509F495C0883499F681DCD1CF88397F
:1009600009F48CC038F5883729F050F4883611F036
:10097000803731F683E08093C9011092770157C028
:10098000883809F47BC0803919F0803809F0B8CF75
:1009900080917701803208F071C0E091770181E0A9
:1009A0008E0F809377018091BB00F0E0E95AFE4FF3
:1009B00080833DC0803B39F0E0F4803A09F479C08F
:1009C000883A09F09DCF84E08093C90110925601C6
:1009D00010925501E091D001F091D10109958091DB
:1009E000550181110FC081E08093550110923501AE
:1009F00009C0803C09F4A7CF883C09F4A4CF883B08
:100A000009F07ECFE091560181E08E0F8093560170
:100A1000F0E0EB5CFE4F80818093BB00909156012B
:100A20008091550129C080919B018093BB0085EC8A
:100A30008093BC0065CF90919A018091990198179D
:100A400058F5E0919A0181E08E0F80939A01F0E0D1
:100A5000E758FE4F8081E9CFE0919A0181E08E0F47
:100A600080939A018091BB00F0E0E758FE4F8083AD
:100A700090919A01809199019817C8F285E8D8CF92
:100A8000E0919A0181E08E0F80939A018091BB00E2
:100A9000F0E0E758FE4F80838091C80181115DCF5F
:100AA00081E08093C70184EA8093BC001092C90161
:100AB00027CF85EC8093BC001092C901809177010B
:100AC000803230F4E0917701F0E0E95AFE4F108275
:100AD0006091770170E0E091CE01F091CF0187E560
:100AE00091E00995109277010BCF1092780135CFE4
:100AF000CF93DF9300D000D0CDB7DEB793E095BDA4
:100B0000789480916E00816080936E0081E0809384
:100B100080009093810086E880937A0014BEA895A7
:100B2000F8940FB6F894A89580916000886180933E
:100B30006000109260000FBE80E880936100109208
:100B4000610061E086E029DE60E084E026DE84E08A
:100B500025DC9A838983019709F06AC161E086E008
:100B600041DC29813A813093F5012093F401789496
:100B70001092080161E084E110DE61E08FE00DDE9B
:100B800061E082E10ADE61E082E12CDC61E085E087
:100B900004DE61E085E026DC60E087E0FEDD60E009
:100BA00080E0FBDD60E081E0F8DD60E082E0F5DD23
:100BB00060E083E0F2DD61E087E1EFDD60E087E1A6
:100BC00011DC10920B0210920A0261E088E1E5DD6F
:100BD00061E088E107DC61E089E1DFDD61E089E176
:100BE00001DC61E08AE1D9DD61E08AE1FBDB01DB68
:100BF000609313027093140280931502909316026F
:100C00006052714D8F4F9F4F60930F02709310028F
:100C1000809311029093120288E28093BA0084E7D5
:100C200090E09093D1018093D00180E890E0909380
:100C3000CF018093CE011092CD011092CC01109281
:100C4000CB011092CA011092C90181E08093C801C2
:100C50001092C70161E085E1C5DB61E086E1C2DB9E
:100C60008091B9008E7F8093B9008091B9008D7F0B
:100C70008093B90080E28093B80085E48093BC0043
:100C80008AE791E09093D3018093D20185E592E0C9
:100C90009093D5018093D40188E19EE00FB6F8943B
:100CA000A895809360000FBE9093600060E082E1A1
:100CB00099DB78E0472E512C01E010E0E4E06E2E45
:100CC000712CFAEFAF2EF1E0BF2EA2E02A2E312CCC
:100CD0008091E2019091E3010196B201C4D2909318
:100CE000E3018093E201009759F02091EC013091EB
:100CF000ED012130310509F0A3C0029709F0A0C031
:100D000061E084E16FDB1092E7011092E60189E176
:100D100091E09C838B83A2E0B2E0BA83A9834D016A
:100D200060E0C62E61E0D62EEB81FC818081329698
:100D3000FC83EB8333DB8130910509F083C0D6015E
:100D40008D939C938091E6019091E7010196909399
:100D5000E7018093E601B2E0CB0ED11CE2E08E0EFB
:100D6000911C2B813C8121523140F1F6E8E0F1E009
:100D700090E080E0880F991F329122912130310557
:100D800009F40196A1E0E030FA07A1F79093E5019C
:100D90008093E401E091EC01F091ED01FC83EB83A1
:100DA000319709F056C025DAC090E801D090E901EA
:100DB000E090EA01F090EB016C157D058E059F0532
:100DC00008F447C060E086E00DDB1092F501109258
:100DD000F4011092ED011092EC0161E085E002DB7C
:100DE00061E087E0FFDA60E087E0D7DC37DB809105
:100DF000F4019091F501019709F46EC084E0CEDA18
:100E0000892B09F469C0F5D96B017C01C0921302EA
:100E1000D0921402E0921502F092160287E0BEDA38
:100E2000019709F040C01092F3011092F20154C0F2
:100E300060E086E0D7DA1092F5011092F40197CEC7
:100E400060E05FCFF60111821082D4011D921C92E6
:100E500082CF8091F4019091F501892B79F284E0A1
:100E60009DDA019721F22B813C81232B09F0BFCF22
:100E70001093ED010093EC01BCD9605E714B8F4F74
:100E80009F4F6093E8017093E9018093EA0190938A
:100E9000EB0161E087E081DC60E087E0A3DA60E0FD
:100EA00085E0A0DAA4CF8091F2019091F301892B23
:100EB00009F051C030EDC30E37E0D31EE11CF11C28
:100EC000C092EE01D092EF01E092F001F092F101B8
:100ED0001093F3010093F2018CD960931302709385
:100EE0001402809315029093160220910F02309104
:100EF000100240911102509112022617370748073D
:100F0000590708F01CC181E080930E0210920D0277
:100F100010920C02E0910A02F0910B0230E020E006
:100F20002F5F3F4FC9018E0F9F1FB3019CD19C8340
:100F30008B83880F991FDC01A050BF4F4D915C91AE
:100F4000452BF9F08E5F9D4FDC018D919C91892B93
:100F5000C1F420E048C08091EE019091EF01A09192
:100F6000F001B091F1018C159D05AE05BF0508F0AB
:100F7000B3CF61E086E036DA1093F5010093F40117
:100F800052CF2430310561F683E108DA019709F088
:100F90002CC148EE53E090E080E0E981FA81219194
:100FA0003191FA83E983241735073CF42534F2E0C4
:100FB0003F071CF0A9019C838B8301968430910527
:100FC00061F78091F4019091F501019709F022C138
:100FD000EB81FC813496FC83EB838B819C810497AD
:100FE0009C838B8321E01092FB011092FA011092F6
:100FF000FD011092FC011092FF011092FE0110926F
:101000000102109200028B819C81880F991FFC01C4
:10101000E650FE4F11830083222329F18E5F9D4FFE
:10102000DC01ED91FC9121E030E08B819C81820F0D
:10103000931FB30118D1880F991FDC01AE5FBD4F1C
:101040004D915C914E1B5F0B4A5F5F4F4D305105D8
:1010500028F486509E4FDC010D931C932F5F3F4F69
:101060002430310511F772E0E72E72E0F72E90E0A0
:1010700080E0880F991FF701329122917F01213082
:10108000310509F40196AE14BF0499F79093F70166
:101090008093F601F894450154E0C52ED12CD4017B
:1010A0008D919D914D01019751F4C6016EEF7FEF37
:1010B000C9D08F5D9E4F60E0FC01808593D9F1E03F
:1010C000CF1AD10861F7D12CC12CD7018D919D91F8
:1010D0007D01892B31F461E0F601EF5DFE4F8081E7
:1010E00081D9B2E0CB0ED11CE8E0CE16D10469F76D
:1010F00078942B813C8130930B0220930A028091DB
:10110000130290911402A0911502B0911602805220
:10111000914DAF4FBF4F40910C0250910D02052EE3
:10112000000C660B770B840F951FA61FB71F8093CB
:101130000F0290931002A0931102B09312028091BB
:101140000E028823E9F110920E0280910801829527
:10115000880F880F807480937C0080917A0080646F
:1011600080937A0080917A0086FDFCCF8091780090
:1011700020917900322F282F80910A0290910B0242
:10118000880F991FFC01EE5FFD4F3183208386504D
:101190009E4FDC018D919C91019791F4EAEFF1E073
:1011A00090E080E0419151914130510529F4DC01FA
:1011B000AE5FBD4F2D933C9302968830910591F719
:1011C0008091F8019091F90101969093F901809333
:1011D000F801B10148D0682F8FE004D968EC70E0C5
:1011E00080E090E0DCD7A89573CD30E020E090E07F
:1011F00080E0A981BA814D915D91BA83A9832417BA
:1012000035071CF49A019C838B83019684309105E9
:1012100081F7D7CE2B813C81243031050CF499CE57
:10122000DCCEE6EDF1E01382128288EE93E0A0E0DE
:10123000B0E084839583A683B7838DE091E09183AA
:10124000808308950024552704C0080E591F880F75
:10125000991F009729F076956795B8F37105B9F74E
:10126000802D952F089597FB072E16F4009406D035
:1012700077FD08D00BD007FC05D03EF49095819502
:101280009F4F0895709561957F4F0895AA1BBB1BD2
:1012900051E107C0AA1FBB1FA617B70710F0A61B76
:1012A000B70B881F991F5A95A9F780959095BC0197
:1012B000CD010895EE0FFF1F0590F491E02D0994E4
:0412C000F894FFCFD0
:1012C400010000000000000001000000006A01604D
:1012D40001280115010601050100000100020003B7
:0A12E400001700180019001A00009E
:00000001FF
