:100000004EC072C071C0E3C4E2C4E1C4E0C46CC0BD
:100010006BC06AC069C068C067C066C08EC464C077
:1000200063C062C061C04BC500002D0024002700E2
:100030002A0000000000000000000003040000008F
:1000400000000000000000000000000000000000B0
:100050002C0023002600290000002E002500280087
:100060002B00040404040404040402020202020239
:10007000020203030303030303010101010301025D
:1000800004081020408001020408102040808001F4
:10009000020408102001020408407D064F0B1124C1
:1000A0001FBECFEFD2E0DEBFCDBF22E0A0E4B1E0C3
:1000B00001C01D92A839B207E1F711E0A0E0B1E05C
:1000C000E0ECF7E102C005900D92A034B107D9F73A
:1000D00010E0CEE4D0E003C02197FE015FDBCD3419
:1000E000D107D1F771D660CB8BCFE0913002F09180
:1000F0003102309729F010922702109226020994BB
:100100000895CF93DF93AC01E0912E02F0912F027E
:100110003097F1F090912902809128029817C0F051
:1001200090E0292F30E02617370754F4D901A65460
:10013000BE4F240F351FE90128812C939F5FF1CF1B
:100140001092290260932802CB01DF91CF9109948C
:10015000DF91CF910895CF92DF92EF92FF920F93AC
:100160001F93CF93DF936C01EB017B01E40EF51E2F
:1001700010E000E0CE15DF0561F06991D601ED9148
:10018000FC910190F081E02DC6010995080F191F1F
:10019000F1CFC801DF91CF911F910F91FF90EF90A8
:1001A000DF90CF9008953FB7F89480911F0290910F
:1001B0002002A0912102B091220226B5A89B05C081
:1001C0002F3F19F00196A11DB11D3FBFBA2FA92FD6
:1001D000982F8827BC01CD01620F711D811D911DD3
:1001E00043E0660F771F881F991F4A95D1F708953E
:1001F0002FB7F89460911B0270911C0280911D0230
:1002000090911E022FBF0895209134023091350243
:100210002817390781F490913202809133029817A0
:1002200051F0E0913202F0E0E652FE4F8081082E5C
:10023000000C990B08958FEF9FEF089520913402E1
:10024000309135022817390739F48FB7F894109296
:100250003302109232028FBF0895EF92FF920F93F4
:100260001F93CF93DF93DC015C96ED90FC905D973C
:10027000E114F10479F481E090E013969C938E935D
:10028000129790E080E0DF91CF911F910F91FF9046
:10029000EF9008955196ED91FC91529750968C9164
:1002A0005097982F90950FB75E962C915E97122FCE
:1002B000127021FD6095F8942081112319F1282BEB
:1002C0002083E7012197F1F728E0462F50E03081A5
:1002D00060FF1AC0382B3083E7012197F1F7BA018C
:1002E00075956795215089F7112381F080818923C5
:1002F00080830FBF5C968D919C910197F1F781E00F
:1003000090E0C1CF2923DCCF3923E5CF9081892B21
:10031000EFCF20913402309135022817390769F464
:10032000809133022091320290E0805C9F4F821BCB
:10033000910960E470E0E9D9089590E080E00895C3
:10034000209134023091350228173907B9F4909181
:10035000320280913302981789F0E0913202F0E086
:10036000E652FE4F80812091320230E02F5F3F4FF6
:100370002F7333272093320290E008958FEF9FEF81
:1003800008950895E091290280912802E81730F439
:10039000F0E0E654FE4F808190E008958FEF9FEFEC
:1003A000089590912902809128022FEF3FEF98172E
:1003B00048F4E92FF0E0E654FE4F208130E09F5FE3
:1003C00090932902C90108958091280290912902F1
:1003D000891B990B089585ED8093BC008091BC002A
:1003E00084FDFCCF10922502089520917301260F01
:1003F0003327331F21323105ECF420912502FC0113
:1004000090E080E0243069F082E00895A0917301CB
:100410002191AC014D5A5E4FA40FB52FB11D2C9305
:100420000196861798F380917301680F60937301AA
:1004300080E0089581E00895CF93DF93CB01EA0136
:10044000642FD3DFCE01DF91CF910895CF93DF9357
:100450001F92CDB7DEB7698361E0CE010196C5DF9B
:1004600081E090E00F90DF91CF910895CF92DF92DD
:10047000EF92FF9280915201853509F43AC108F05C
:1004800078C0873309F4FBC0D8F520915001309132
:1004900051018432D9F010F520914A0130914B017D
:1004A0008132A1F038F42AE130E0803179F028EE91
:1004B00030E00CC020914C0130914D01823231F07E
:1004C00020914E0130914F01833289F7622F8DE6E2
:1004D00092E0FF90EF90DF90CF90B8CF813309F496
:1004E000C1C038F420913A0230913B02803371F35D
:1004F000DECF20914C0230914D02843338F3D7CFB8
:10050000843409F4E6C0D8F4813409F4D8C038F44E
:1005100020914A0230914B028034C1F2C8CF82341C
:1005200009F4D2C020915E0230915F02833409F059
:10053000BECF35952795359527953327C7CF20EE24
:100540003EE2823519F258F4803509F4C7C0209193
:100550004E0230914F02813509F4B8CFA8CF21EE79
:1005600030E0833509F4B2CF843509F0A0CF20E024
:10057000ADCF833709F4D2C0A0F52091420130916C
:100580004301823609F4A2CF80F423EE30E08735B0
:1005900009F49CCF60F3883551F3209140013091EC
:1005A0004101813609F492CF82CF803709F4A4C08B
:1005B00078F42091440130914501833609F486CFC7
:1005C0002091460130914701843609F47FCF6FCFE7
:1005D000813709F496C020916B02823709F476CFF7
:1005E00066CF8A3709F4ACC0C8F42EE230E0853714
:1005F00009F46CCF20EE30E0853708F467CF8837F8
:1006000009F499C0893709F052CF209165023091E1
:10061000660240916702509168027BC0813809F4FC
:10062000A6CF48F48B3709F48EC02EEE30E0803828
:1006300009F44CCF3CCF883809F499CF893909F0B7
:1006400036CF10925B0210925A0210925D02109205
:100650005C0210925F0210925E0210926102109290
:10066000600234CF20915802309159022F5F3F4FE2
:1006700081E090E090934B0280934A0227CF8091D3
:100680004002909141022FEF30E0892B09F41ECFF8
:10069000C0903C02D0903D02E0903E02F0903F02BC
:1006A000A7DDA7019601261B370B480B590BCA0182
:1006B000B9012DE730E040E050E03AD807CF209173
:1006C0005A0230915B0235CF20915C0230915D027D
:1006D00030CF20916002309161022BCF20914801F0
:1006E000309149012F5F3F4F3093490120934801DA
:1006F000EDCE22EE30E0EACE2091690230916A021E
:100700001CCF2091690230916A0240916B02509196
:100710006C02232F342F452F55270FCF20916902CC
:1007200030916A0240916B0250916C02252F332761
:1007300044275527CBCE2091650230916602FDCE2D
:1007400020916702C3CE20916502309166024091EC
:10075000670250916802EACFCF93DF938130910511
:1007600061F490912802809129029817F1F18DE6A9
:1007700092E017DE80935201F4CF0297B1F58DE637
:1007800092E00FDEEC0190934101809340018DE6F1
:1007900092E007DE9093430180934201C09352019F
:1007A000A197C430D10508F5CC0FDD1FFE01E65B33
:1007B000FE4F91838083C05BDD4F288139812130DA
:1007C000310599F4E0E5F2E030E020E0419151910B
:1007D0004130510529F4D901A65BBE4F8D939C93FE
:1007E0002E5F3F4F2830310589F7DF91CF91089573
:1007F00087FF04C08F778830D0F48F5E90E0FC01D3
:10080000E258FF4F2491FC01EE59FF4FE491EE2393
:1008100081F0F0E0EE0FFF1FE25BFF4FA591B49176
:10082000EC91E22381E090E031F480E008958FEFD5
:10083000E5CF80E090E0089587FF04C08F7788308F
:1008400058F58F5E90E0FC01EE5CFF4F3491FC01A7
:10085000E258FF4F2491FC01EE59FF4FE491EE2343
:10086000D1F0332339F03330C9F4809180008F7791
:1008700080938000F0E0EE0FFF1FE85AFF4FA59134
:10088000B4918FB7611110C0F8949C91E22FE0955C
:10089000E923EC938FBF08958FEFD4CF343051F715
:1008A000809180008F7DE4CFF894EC91E22BF1CF22
:1008B000CF93DF9387FF04C08F77883048F58F5E32
:1008C00090E0FC01E258FF4F24918E599F4FFC01AC
:1008D00084918823D1F090E0880F991FFC01E85D96
:1008E000FF4FA591B491FC01E85AFF4FC591D491F7
:1008F000611110C09FB7F8948C91E22FE0958E2380
:100900008C932881E223E8839FBFDF91CF910895E4
:100910008FEFD6CF8FB7F894EC91E22BEC938FBF8B
:10092000F4CFFC0101900020E9F73197AF01481B9B
:10093000590BBC0189E792E00ECC1F920F920FB6C3
:100940000F9211242F933F938F939F93AF93BF9355
:1009500080911B0290911C02A0911D02B0911E0279
:1009600030911A0226E0230F2D3768F129E8230F72
:100970000396A11DB11D20931A0280931B02909330
:100980001C02A0931D02B0931E0280911F02909141
:100990002002A0912102B09122020196A11DB11D59
:1009A00080931F0290932002A0932102B093220211
:1009B000BF91AF919F918F913F912F910F900FBE5B
:1009C0000F901F9018950296A11DB11DD4CF1F92B4
:1009D0000F920FB60F9211242F933F934F935F9373
:1009E0006F937F938F939F93AF93BF93EF93FF93F7
:1009F000E0913402F0913502309749F0A685B78531
:100A00008585968D91FF14C09C918923A1F4FF9157
:100A1000EF91BF91AF919F918F917F916F915F9176
:100A20004F913F912F910F900FBE0F901F901895EF
:100A30009C91892361F7A389B4899C9185898095CC
:100A400089238C93868997890197F1F7608D718D41
:100A5000A685B785558538E020E0CB010197F1F7F1
:100A6000822F90E095958795282F4C91452309F08A
:100A70002068315091F7868D81FD20958091330259
:100A800090E001968F73992730913202381799F0D0
:100A9000A0913302B0E0A652BE4F2C938093330254
:100AA000828D938D0197F1F7A389B4898C919589F3
:100AB000892B8C93ACCF868D8160868FF1CF1F926E
:100AC0000F920FB60F9211242F933F934F935F9382
:100AD0006F937F938F939F93AF93BF93EF93FF9306
:100AE0008091B900887F803609F449C0E8F58832E2
:100AF00009F4A6C018F5803109F49AC0B8F4882327
:100B000009F4F8C0883009F493C0FF91EF91BF91C8
:100B1000AF919F918F917F916F915F914F913F9195
:100B20002F910F900FBE0F901F901895883109F4E8
:100B300087C0803251F78093960114C0803409F445
:100B40009CC040F48033B9F38833F9F68093960162
:100B500085ECAFC0803509F484C0883509F495C0B0
:100B6000883499F638DCD1CF883909F48CC038F54F
:100B7000883729F050F4883611F0803731F683E059
:100B8000809325021092950157C0883809F47BC0E4
:100B9000803919F0803809F0B8CF80919501803202
:100BA00008F071C0E091950181E08E0F809395016E
:100BB0008091BB00F0E0EB58FE4F80833DC0803B4E
:100BC00039F0E0F4803A09F479C0883A09F09DCF11
:100BD00084E0809325021092740110927301E091D9
:100BE0002C02F0912D0209958091730181110FC0A3
:100BF00081E0809373011092530109C0803C09F495
:100C0000A7CF883C09F4A4CF883B09F07ECFE091C0
:100C1000740181E08E0F80937401F0E0ED5AFE4F75
:100C200080818093BB00909174018091730129C0F1
:100C30008091B9018093BB0085EC8093BC0065CFA7
:100C40009091B8018091B701981758F5E091B801DB
:100C500081E08E0F8093B801F0E0E956FE4F80816D
:100C6000E9CFE091B80181E08E0F8093B8018091C7
:100C7000BB00F0E0E956FE4F80839091B80180916F
:100C8000B7019817C8F285E8D8CFE091B80181E0A4
:100C90008E0F8093B8018091BB00F0E0E956FE4FC3
:100CA00080838091240281115DCF81E080932302B3
:100CB00084EA8093BC001092250227CF85EC8093B4
:100CC000BC001092250280919501803230F4E091B1
:100CD0009501F0E0EB58FE4F10826091950170E0B5
:100CE000E0912A02F0912B0285E791E0099510929C
:100CF00095010BCF1092960135CF10927002109291
:100D00006F0288EE93E0A0E0B0E0809371029093D0
:100D10007202A0937302B09374022DE131E030931C
:100D20006E0220936D0210927C0210927B028093DF
:100D30007D0290937E02A0937F02B09380028DE2A9
:100D400091E090937A02809379021092900210922F
:100D50008F021092920210929102109294021092BD
:100D600093021092960210929502609197026E7F04
:100D70006D7F609397026695617081E0682789E0D6
:100D80005BDD61E089E094DD82E08093890285E2A9
:100D900090E090938B0280938A0260E088E088DD87
:100DA0008091970281FD03C061E088E045DD88E025
:100DB0008093850281E08093860283E290E09093A5
:100DC0008802809387020895CF93DF93CDB7DEB773
:100DD000A1970FB6F894DEBF0FBECDBF93E095BDCF
:100DE000789480916E00816080936E0081E08093A2
:100DF00080009093810086E880937A0014BEA895C5
:100E0000F8940FB6F894A89580916000886180935B
:100E10006000109260000FBE80E880936100109225
:100E2000610061E086E044DD60E084E041DD84E073
:100E3000DFDC61E0019709F060E086E0FDDC78949A
:100E40001092080161E084E133DD61E08FE030DD84
:100E500061E082E12DDD61E082E1EEDC61E085E0D0
:100E600027DD61E085E0E8DC60E087E021DD60E02F
:100E700080E01EDD60E081E01BDD60E082E018DDE7
:100E800060E083E015DD61E087E112DD60E087E18D
:100E9000D3DC109259021092580261E088E108DD1B
:100EA00061E088E1C9DC61E089E102DD61E089E1BE
:100EB000C3DC61E08AE1FCDC61E08AE1BDDC98D959
:100EC0006093690270936A0280936B0290936C0244
:100ED0006052714D8F4F9F4F609365027093660211
:100EE000809367029093680288E28093BA0085E756
:100EF00090E090932D0280932C0281E890E09093F3
:100F00002B0280932A02109229021092280210923A
:100F10002702109226021092250281E0809324027B
:100F20001092230261E085E187DC61E086E184DCE8
:100F30008091B9008E7F8093B9008091B9008D7F38
:100F40008093B90080E28093B80085E48093BC0070
:100F50008CEA93E090932F0280932E0286E392E036
:100F6000909331028093300288E19EE00FB6F894AE
:100F7000A895809360000FBE9093600060E082E1CE
:100F80005BDC60E088E094DC61E089E091DC109259
:100F90009402109293021092920210929102109277
:100FA000900210928F028DEC90E0909396028093C5
:100FB0009502809185028B3108F049C025E530E02B
:100FC0003093900220938F022BEC30E0309392020A
:100FD0002093910220E930E0309394022093930211
:100FE0002091680094E0883038F091E0803120F062
:100FF00092E0873108F098E0922B909368002DE6FC
:1010000030E0883070F02BE630E0803150F02CE694
:1010100030E0873130F02AE630E08B3110F030E0FC
:1010200020E030938D0220938C02803108F0F1C0D3
:10103000877091E001C0990F8A95EAF7892F809314
:101040008E0280919502909196020197F1F780911E
:10105000930290919402892B49F1E0913402F0912E
:10106000350222E0E937F20709F1309739F0A38918
:10107000B4899C918589809589238C93809197026E
:101080008E7F80939702109233021092320289E78A
:1010900092E09093350280933402E0918C02F091BB
:1010A0008D02808190918E02892B8083EE24E394BF
:1010B000F12CFAE04F2E512C612C712C80913602CC
:1010C00090913702019668E070E01FD39093370249
:1010D00080933602009759F02091400230914102EE
:1010E0002130310509F0A8C0029709F0A5C061E0E0
:1010F00084E1A2DB10923B0210923A0209E011E077
:101100006AE5262E62E0362E510170E0C72E71E0AE
:10111000D72ED8018C910E5F1F4F6ADB813091056D
:1011200009F08CC0F6019183808380913A029091FE
:101130003B02019690933B0280933A02F2E0CF0E7D
:10114000D11C22E0A20EB11C81E191E08017910731
:1011500001F7E8E0F1E090E080E0880F991F32911C
:1011600022912130310509F40196A1E0E030FA071F
:10117000A1F79093390280933802809148029091B0
:101180004902892B61F184E033DB019709F18091F9
:10119000400290914102892B09F057C0F092410220
:1011A000E092400225D8605E714B8F4F9F4F609355
:1011B0003C0270933D0280933E0290933F0261E0B7
:1011C00087E076DB60E087E037DB60E085E034DBFA
:1011D0008091480290914902019709F473C084E01C
:1011E00007DB892B09F46EC003D84B015C018092A8
:1011F000690290926A02A0926B02B0926C0287E040
:10120000F7DA019709F045C01092470210924602A2
:1012100059C0803179F0282F30E0873140F42151D6
:10122000310981E001C0880F2A95EAF708CF2751DC
:101230003109F7CF80E803CF60E05ACFD6011D9285
:101240001C92F5011182108279CFD2D700913C0215
:1012500010913D0220913E0230913F0260177107CC
:101260008207930708F4B4CF60E086E0E5DA1092D5
:10127000490210924802109241021092400261E02D
:1012800085E0DADA61E087E0D7DA60E087E010DB5A
:101290009FCF8091460290914702892B09F05BC055
:1012A000B0ED8B0EB7E09B1EA11CB11C80924202D8
:1012B00090924302A0924402B0924502F0924702FB
:1012C000E092460295D76093690270936A02809318
:1012D0006B0290936C02009165021091660220915E
:1012E000670230916802061717072807390708F0C8
:1012F00052C181E0809364021092630210926202F4
:1013000080914A0290914B02019721F410924B0276
:1013100010924A02E0915802F091590230E020E028
:101320002F5F3F4FC9018E0F9F1F64E070E0EDD12A
:101330008C01880F991FDC01A050BF4F4D915C912B
:10134000452BF9F0865A9D4FDC018D919C91892B9C
:10135000C1F420E034C08091420290914302A091F8
:101360004402B091450288159905AA05BB0508F00D
:10137000A9CF61E086E060DAF0924902E09248028B
:1013800043CF2430310561F683E132DAEAE5F2E059
:10139000019709F064C144E853E090E080E02191B6
:1013A00031912417350734F42534B2E03B0714F0AB
:1013B000A9018C0101968430910589F721E01092F2
:1013C0005102109250021092530210925202109247
:1013D0005502109254021092570210925602C80100
:1013E000880F991FFC01E05BFD4FF182E082222310
:1013F00029F1865A9D4FDC01ED91FC9121E030E00E
:10140000C901800F911F64E070E07FD1880F991FA0
:10141000DC01A65ABD4F4D915C914E1B5F0B4A5F9C
:101420005F4F4D30510528F4805B9D4FDC01ED92FC
:10143000FC922F5F3F4F2430310511F778E5C72E1E
:1014400072E0D72E90E080E0880F991FF60132916C
:1014500022916F012130310509F4019620E532E037
:101460002C153D0589F790934D0280934C02F8941A
:10147000490154E0A52EB12CD4018D919D914D01CF
:10148000019751F4C5016EEF7FEF2ED18F5E9E4F15
:1014900060E0FC018085D0D9F1E0AF1AB10861F7B6
:1014A000B12CA12CD6018D919D916D01892B31F428
:1014B00061E0F501EF5EFE4F8081BED9B2E0AB0E78
:1014C000B11CE8E0AE16B10469F7789410935902A4
:1014D000009358028091690290916A02A0916B0278
:1014E000B0916C028052914DAF4FBF4F409162025C
:1014F00050916302052E000C660B770B840F951F2D
:10150000A61FB71F8093650290936602A09367029F
:10151000B093680289E391E004DAD1018D909D9047
:101520001D01092C000CAA08BB08B7FE0CC06DE217
:1015300089E792E092D6B094A09490948094811C14
:10154000911CA11CB11CD82C792DC50119A28E01AA
:101550000F5D1F4F6D2DA3019201EAD0822F6AE02B
:10156000BAD0D81A8D2D8A300CF089C0805DF80170
:1015700082938F01D22E732FCA01232B242B252B6C
:1015800049F7CF01CED98DE391E0CBD922E632E005
:101590002215330511F6809164028823E9F1109237
:1015A0006402809108018295880F880F807480936F
:1015B0007C0080917A00806480937A0080917A0028
:1015C00086FDFCCF8091780020917900322F282F62
:1015D0008091580290915902880F991FFC01E65A98
:1015E000FD4F31832083805B9D4FDC018D919C9169
:1015F000019791F4E0E5F2E090E080E041915191B3
:101600004130510529F4DC01A65ABD4F2D933C937E
:1016100002968830910591F780914E0290914F0289
:10162000019690934F0280934E0262E070E06DD07D
:10163000682F8FE001D9B7D58B0188EC882E912CCB
:10164000A12CB12CB0D5601B710B683E734008F122
:1016500081149104A104B104A1F4A8952FCD30E028
:1016600020E090E080E0419151912417350714F477
:101670009A018C01019684309105A9F79FCE895C6F
:1016800076CFB1E08B1A9108A108B10808511C4F20
:10169000D9CF81149104A104B104A1F6DECF8DE26B
:1016A00091E090937A028093790280913402909134
:1016B00035028957924071F4E0918C02F0918D02CD
:1016C000908180918E0280958923808310923502CB
:1016D000109234020895002480FD060E660F11F06A
:1016E0008695D1F7802D08950024552704C0080E53
:1016F000591F880F991F009729F076956795B8F3C1
:101700007105B9F7802D952F089597FB072E16F4D4
:10171000009406D077FD08D02DD007FC05D03EF40C
:10172000909581959F4F0895709561957F4F08958D
:10173000A1E21A2EAA1BBB1BFD010DC0AA1FBB1FD5
:10174000EE1FFF1FA217B307E407F50720F0A21B47
:10175000B30BE40BF50B661F771F881F991F1A94B4
:1017600069F760957095809590959B01AC01BD01DE
:10177000CF010895AA1BBB1B51E107C0AA1FBB1FC5
:10178000A617B70710F0A61BB70B881F991F5A950D
:10179000A9F780959095BC01CD010895EE0FFF1F2C
:1017A0000590F491E02D099410E0CEE4D0E003C060
:1017B000FE01F4DF2196CF34D107D1F7F894FFCFA3
:1017C0000100000000000000010000010002000311
:1017D000001700180019001A000000000026021C63
:1017E00002E401D101C201C101000000002D01ABE2
:1017F000008901A00104011E01404040002020009A
:00000001FF
