:100000004DC071C070C01CC41BC41AC419C46BC0DD
:100010006AC069C068C067C066C065C0C7C363C046
:1000200062C061C060C016C400002D00240027001B
:100030002A0000002E00250028002B0000000000F0
:1000400000000000000304000000000000000000A9
:10005000000000000000000000002C00230026002B
:10006000290004040404040404040202020202023B
:10007000020203030303030303010101010301025D
:1000800004081020408001020408102040808001F4
:1000900002040810200102040840040911241FBEB4
:1000A000CFEFD2E0DEBFCDBF22E0AAE2B1E001C0D7
:1000B0001D92AF31B207E1F711E0A0E0B1E0EEEE42
:1000C000F2E102C005900D92AA32B107D9F710E013
:1000D000CEE4D0E003C02197FE0101D9CD34D10791
:1000E000D1F7D6D402C98CCFE091DC01F091DD01CB
:1000F000309729F01092D3011092D20109940895FB
:10010000CF93DF93AC01E091DA01F091DB013097FE
:10011000F1F09091D5018091D4019817C0F090E052
:10012000292F30E02617370754F4D901AC55BE4FBC
:10013000240F351FE90128812C939F5FF1CF109286
:10014000D5016093D401CB01DF91CF910994DF9168
:10015000CF9108953FB7F8948091CB019091CC0155
:10016000A091CD01B091CE0126B5A89B05C02F3F2F
:1001700019F00196A11DB11D3FBFBA2FA92F982FCD
:100180008827BC01CD01620F711D811D911D43E0C7
:10019000660F771F881F991F4A95D1F708952FB7CB
:1001A000F8946091C7017091C8018091C901909144
:1001B000CA012FBF08950895E091D5018091D4011F
:1001C000E81730F4F0E0EC55FE4F808190E00895A0
:1001D0008FEF9FEF08959091D5018091D4012FEF7B
:1001E0003FEF981748F4E92FF0E0EC55FE4F2081DF
:1001F00030E09F5F9093D501C90108958091D401AB
:100200009091D501891B990B089585ED8093BC00D1
:100210008091BC0084FDFCCF1092D1010895209103
:100220005D01260F3327331F21323105ECF4209175
:10023000D101FC0190E080E0243069F082E0089573
:10024000A0915D012191AC01435C5E4FA40FB52FDD
:10025000B11D2C930196861798F380915D01680F6C
:1002600060935D0180E0089581E00895CF93DF936E
:10027000CB01EA01642FD3DFCE01DF91CF91089546
:10028000CF93DF931F92CDB7DEB7698361E0CE01D4
:100290000196C5DF81E090E00F90DF91CF91089546
:1002A000CF93DF938130910561F49091D4018091D7
:1002B000D5019817F1F18EED91E08DDF80933C012F
:1002C000F4CF0297B1F58EED91E085DFEC019093CC
:1002D0002B0180932A018EED91E07DDF90932D011B
:1002E00080932C01C0933C01A197C430D10508F53F
:1002F000CC0FDD1FFE01EC5CFE4F91838083CE5F4F
:10030000DD4F288139812130310599F4E2E0F2E0B6
:1003100030E020E0419151914130510529F4D9015B
:10032000AC5CBE4F8D939C932E5F3F4F28303105C0
:1003300089F7DF91CF91089587FF04C08F778830C8
:10034000D0F48F5E90E0FC01E258FF4F2491FC0155
:10035000EE59FF4FE491EE2381F0F0E0EE0FFF1F26
:10036000E85AFF4FA591B491EC91E22381E090E02F
:1003700031F480E008958FEFE5CF80E090E00895BC
:1003800087FF04C08F77883058F58F5E90E0FC01BE
:10039000E45CFF4F3491FC01E258FF4F2491FC01D3
:1003A000EE59FF4FE491EE23D1F0332339F033308F
:1003B000C9F4809180008F7780938000F0E0EE0F89
:1003C000FF1FEE5CFF4FA591B4918FB7611110C074
:1003D000F8949C91E22FE095E923EC938FBF089568
:1003E0008FEFD4CF343051F7809180008F7DE4CFF0
:1003F000F894EC91E22BF1CFA0E0B1E011961C92C1
:100400001E92EAE0F2E01182108213961C921E9274
:1004100012971382128215961C921E9214971582BF
:10042000148217961C921E9216971782168260E00D
:1004300087E1A6DF61E088E1A3DF61E089E1A0DF79
:1004400061E08AE19DCFCF92DF92EF92FF9280919F
:100450003C01853509F43EC108F089C0873309F4B1
:10046000FFC008F04AC020913A0130913B0184322C
:10047000D9F010F520913401309135018132A1F08D
:1004800038F42DE130E0803179F028EE30E00CC016
:100490002091360130913701823231F020913801BC
:1004A00030913901833289F7622F8EED91E0FF9010
:1004B000EF90DF90CF90E4CE8433A8F42091FE013A
:1004C0003091FF01823380F72091EE013091EF01EE
:1004D000803351F320911202309113022F5F3F4F6E
:1004E000813311F3D2CF843381F683E125DF51E0EC
:1004F000019709F050E0252FD7CF843409F4DAC0F2
:10050000D8F4813409F4CCC038F4803409F0BDCF7C
:1005100073DF21E030E0C8CF823409F4C6C02091F7
:100520000E0230910F02833409F0AFCF3595279535
:10053000359527953327B8CF20EE3EE2823509F472
:10054000B3CF58F4803509F4BAC02091000230913D
:100550000102813509F4A8CF98CF21EE30E0833530
:1005600009F4A2CF843509F090CF20E09DCF8337E6
:1005700009F4C5C0A0F520912C0130912D018236DF
:1005800009F492CF80F423EE30E0873509F48CCF64
:1005900060F3883551F320912A0130912B01813687
:1005A00009F482CF72CF803709F497C078F4209194
:1005B0002E0130912F01833609F476CF209130013E
:1005C00030913101843609F46FCF5FCF813709F460
:1005D00089C020911D02823709F466CF56CF8A3731
:1005E00009F49FC0C8F42EE230E0853709F45CCFEF
:1005F00020EE30E0853708F457CF883709F48CC0F7
:10060000893709F042CF20911702309118024091AA
:10061000190250911A026EC0813809F4A6CF48F42D
:100620008B3709F481C02EEE30E0803809F43CCFDE
:100630002CCF883809F499CF893909F026CF109248
:100640000B0210920A0210920D0210920C021092EC
:100650000F0210920E02109211021092100224CF7B
:100660008091F4019091F5012FEF30E0892B09F48E
:100670001BCFC090F001D090F101E090F201F0901A
:10068000F3018DDDA7019601261B370B480B590B93
:10069000CA01B9012DE730E040E050E0EAD504CFCF
:1006A00020910A0230910B0241CF20910C0230912F
:1006B0000D023CCF209110023091110237CF2091D2
:1006C0003201309133012F5F3F4F3093330120933C
:1006D0003201EACE22EE30E0E7CE20911B023091CB
:1006E0001C0228CF20911B0230911C0240911D0258
:1006F00050911E02232F342F452F55271BCF2091B9
:100700001B0230911C0240911D0250911E02252FA8
:10071000332744275527C8CE20911702309118025D
:1007200009CF20911902C0CE2091170230911802F2
:100730004091190250911A02EACFCF93DF9387FFBD
:1007400004C08F77883048F58F5E90E0FC01E25856
:10075000FF4F24918E599F4FFC0184918823D1F043
:1007600090E0880F991FFC01E85DFF4FA591B491BF
:10077000FC01EE5CFF4FC591D491611110C09FB791
:10078000F8948C91E22FE0958E238C932881E223BC
:10079000E8839FBFDF91CF9108958FEFD6CF8FB7BA
:1007A000F894EC91E22BEC938FBFF4CF1F920F9251
:1007B0000FB60F9211242F933F938F939F93AF9374
:1007C000BF938091C7019091C801A091C901B091D8
:1007D000CA013091C60126E0230F2D3768F129E8C0
:1007E000230F0396A11DB11D2093C6018093C7015D
:1007F0009093C801A093C901B093CA018091CB0125
:100800009091CC01A091CD01B091CE010196A11D96
:10081000B11D8093CB019093CC01A093CD01B093F7
:10082000CE01BF91AF919F918F913F912F910F90EA
:100830000FBE0F901F9018950296A11DB11DD4CF29
:100840001F920F920FB60F9211240F900FBE0F90B0
:100850001F9018951F920F920FB60F9211242F938D
:100860003F934F935F936F937F938F939F93AF9338
:10087000BF93EF93FF938091B900887F803609F48E
:1008800049C0E8F5883209F4A6C018F5803109F4AA
:100890009AC0B8F4882309F4F8C0883009F493C0EA
:1008A000FF91EF91BF91AF919F918F917F916F9148
:1008B0005F914F913F912F910F900FBE0F901F901E
:1008C0001895883109F487C0803251F780938001F0
:1008D00014C0803409F49CC040F48033B9F38833E9
:1008E000F9F68093800185ECAFC0803509F484C0AF
:1008F000883509F495C0883499F687DCD1CF8839DA
:1009000009F48CC038F5883729F050F4883611F096
:10091000803731F683E08093D10110927F0157C078
:10092000883809F47BC0803919F0803809F0B8CFD5
:1009300080917F01803208F071C0E0917F0181E0F9
:100940008E0F80937F018091BB00F0E0E15AFE4F53
:1009500080833DC0803B39F0E0F4803A09F479C0EF
:10096000883A09F09DCF84E08093D10110925E0116
:1009700010925D01E091D801F091D9010995809123
:100980005D0181110FC081E080935D0110923D01F6
:1009900009C0803C09F4A7CF883C09F4A4CF883B68
:1009A00009F07ECFE0915E0181E08E0F80935E01C1
:1009B000F0E0E35CFE4F80818093BB0090915E018C
:1009C00080915D0129C08091A3018093BB0085ECDB
:1009D0008093BC0065CF9091A2018091A1019817EE
:1009E00058F5E091A20181E08E0F8093A201F0E022
:1009F000EF57FE4F8081E9CFE091A20181E08E0F99
:100A00008093A2018091BB00F0E0EF57FE4F8083FE
:100A10009091A2018091A1019817C8F285E8D8CFE2
:100A2000E091A20181E08E0F8093A2018091BB0032
:100A3000F0E0EF57FE4F80838091D00181115DCFB0
:100A400081E08093CF0184EA8093BC001092D101B1
:100A500027CF85EC8093BC001092D10180917F015B
:100A6000803230F4E0917F01F0E0E15AFE4F1082D5
:100A700060917F0170E0E091D601F091D7018FE5A0
:100A800091E0099510927F010BCF1092800135CF34
:100A9000CF93DF9300D000D0CDB7DEB793E095BD04
:100AA000789480916E00816080936E0081E08093E5
:100AB00080009093810086E880937A0014BEA89508
:100AC000F8940FB6F894A89580916000886180939F
:100AD0006000109260000FBE80E880936100109269
:100AE000610061E086E029DE60E084E026DE84E0EB
:100AF00023DC9A838983019709F06BC161E086E06A
:100B00003FDC29813A813093FD012093FC017894E8
:100B10001092080161E084E110DE61E08FE00DDEFB
:100B200061E082E10ADE61E082E12ADC61E085E0E9
:100B300004DE61E085E024DC60E087E0FEDD60E06B
:100B400080E0FBDD60E081E0F8DD60E082E0F5DD83
:100B500060E083E0F2DD61E087E1EFDD60E087E106
:100B60000FDC109213021092120261E088E1E5DDC1
:100B700061E088E105DC61E089E1DFDD61E089E1D8
:100B8000FFDB61E08AE1D9DD61E08AE1F9DB07DBC7
:100B900060931B0270931C0280931D0290931E02AF
:100BA0006052714D8F4F9F4F6093170270931802E0
:100BB0008093190290931A0288E28093BA0084E726
:100BC00090E09093D9018093D80180E890E09093D1
:100BD000D7018093D6011092D5011092D4011092C2
:100BE000D3011092D2011092D10181E08093D00103
:100BF0001092CF0161E085E1C3DB61E086E1C0DBFB
:100C00008091B9008E7F8093B9008091B9008D7F6B
:100C10008093B90080E28093B80085E48093BC00A3
:100C200080E591E09093DB018093DA0183E292E02A
:100C30009093DD018093DC0188E19EE00FB6F8948B
:100C4000A895809360000FBE9093600060E082E101
:100C500097DB78E0272E312C01E010E0E4E06E2EE7
:100C6000712CF2E0AF2EF2E0BF2EA2E04A2E512C02
:100C70008091EA019091EB010196B101E7D2909346
:100C8000EB018093EA01009759F02091F401309133
:100C9000F5012130310509F0A4C0029709F0A1C087
:100CA00061E084E16DDB1092EF011092EE0189E1C9
:100CB00091E09C838B83AAE0B2E0BA83A9834D01C3
:100CC00060E0C62E61E0D62EEB81FC8180813296F9
:100CD000FC83EB8331DB8130910509F084C0D601C0
:100CE0008D939C938091EE019091EF0101969093EA
:100CF000EF018093EE01B2E0CB0ED11CE2E08E0E4C
:100D0000911C2B813C8121523140F1F6E8E0F1E069
:100D100090E080E0880F991F3291229121303105B7
:100D200009F40196A0E0B1E0AE17BF0799F79093E0
:100D3000ED018093EC01E091F401F091F501FC8369
:100D4000EB83319709F056C02ADAC090F001D090B9
:100D5000F101E090F201F090F3016C157D058E0534
:100D60009F0508F447C060E086E00ADB1092FD01B1
:100D70001092FC011092F5011092F40161E085E0FF
:100D8000FFDA61E087E0FCDA60E087E0D6DC34DBA4
:100D90008091FC019091FD01019709F46EC084E0FF
:100DA000CBDA892B09F469C0FAD96B017C01C092B6
:100DB0001B02D0921C02E0921D02F0921E0287E0FC
:100DC000BBDA019709F040C01092FB011092FA01C2
:100DD00054C060E086E0D4DA1092FD011092FC016C
:100DE00096CE60E05ECFF60111821082D4011D9292
:100DF0001C9281CF8091FC019091FD01892B79F2A9
:100E000084E09ADA019721F22B813C81232B09F0AF
:100E1000BFCF1093F5010093F401C1D9605E714B0F
:100E20008F4F9F4F6093F0017093F1018093F20117
:100E30009093F30161E087E080DC60E087E0A0DA76
:100E400060E085E09DDAA4CF8091FA019091FB01EA
:100E5000892B09F051C030EDC30E37E0D31EE11CE1
:100E6000F11CC092F601D092F701E092F801F092E5
:100E7000F9011093FB010093FA0191D960931B02D1
:100E800070931C0280931D0290931E022091170202
:100E9000309118024091190250911A022617370713
:100EA0004807590708F01CC181E080931602109290
:100EB000150210921402E0911202F091130230E038
:100EC00020E02F5F3F4FC9018E0F9F1FB301BED19E
:100ED0009C838B83880F991FDC01A050BF4F4D91DD
:100EE0005C91452BF9F0865F9D4FDC018D919C91C3
:100EF000892BC1F420E048C08091F6019091F70160
:100F0000A091F801B091F9018C159D05AE05BF05C2
:100F100008F0B3CF61E086E033DA1093FD0100936F
:100F2000FC0152CF2430310561F683E105DA0197E7
:100F300009F03CC144E853E090E080E0E981FA81A7
:100F400021913191FA83E983241735073CF4253444
:100F5000F2E03F071CF0A9019C838B83019684304B
:100F6000910561F78091FC019091FD01019709F0D5
:100F700032C1EB81FC813496FC83EB838B819C81B5
:100F800004979C838B8321E010920302109202024B
:100F900010920502109204021092070210920602AB
:100FA00010920902109208028B819C81880F991F70
:100FB000FC01EE5FFD4F11830083222329F1865F40
:100FC0009D4FDC01ED91FC9121E030E08B819C8113
:100FD000820F931FB3013AD1880F991FDC01A65FDE
:100FE000BD4F4D915C914E1B5F0B4A5F5F4F4D3083
:100FF000510528F48E5F9D4FDC010D931C932F5FEC
:101000003F4F2430310511F77AE0E72E72E0F72EDA
:1010100090E080E0880F991FF701329122917F01C3
:101020002130310509F40196AE14BF0499F790936D
:10103000FF018093FE01F894450154E0C52ED12CA8
:10104000D4018D919D914D01019751F4C6016EEF30
:101050007FEFEBD08F5D9E4F60E0FC01808590D9E3
:10106000F1E0CF1AD10861F7D12CC12CD7018D91B5
:101070009D917D01892B31F461E0F601EF5DFE4F1A
:1010800080817ED9B2E0CB0ED11CE8E0CE16D1042F
:1010900069F778942B813C813093130220931202DC
:1010A00080911B0290911C02A0911D02B0911E0222
:1010B0008052914DAF4FBF4F409114025091150295
:1010C000052E000C660B770B840F951FA61FB71F0C
:1010D0008093170290931802A0931902B0931A02FA
:1010E000809116028823E9F110921602809108017E
:1010F0008295880F880F807480937C0080917A009D
:10110000806480937A0080917A0086FDFCCF809184
:10111000780020917900322F282F8091120290912F
:101120001302880F991FFC01E65FFD4F3183208376
:101130008E5F9D4FDC018D919C91019791F4E2E0CF
:10114000F2E090E080E0419151914130510529F465
:10115000DC01A65FBD4F2D933C930296883091052C
:1011600091F7809100029091010201969093010203
:1011700080930002B2016AD0682F8FE001D9EAD7CC
:101180007A83698388ECC82ED12CE12CF12CE2D72C
:1011900029813A81621B730B683E734078F1C11458
:1011A000D104E104F104F1F4A89562CD30E020E02F
:1011B00090E080E0A981BA814D915D91BA83A983C5
:1011C000241735071CF49A019C838B830196843085
:1011D000910581F7C7CE2B813C81243031050CF479
:1011E00089CECCCEB1E0CB1AD108E108F108E98173
:1011F000FA81E851FC4FFA83E983C9CFC114D104C5
:10120000E104F10421F6D0CFEEEDF1E01382128279
:1012100088EE93E0A0E0B0E084839583A683B78353
:101220008DE091E09183808308950024552704C0C8
:10123000080E591F880F991F009729F0769567951A
:10124000B8F37105B9F7802D952F089597FB072EF8
:1012500016F4009406D077FD08D02DD007FC05D0F9
:101260003EF4909581959F4F0895709561957F4FBD
:101270000895A1E21A2EAA1BBB1BFD010DC0AA1FD7
:10128000BB1FEE1FFF1FA217B307E407F50720F0EF
:10129000A21BB30BE40BF50B661F771F881F991F6A
:1012A0001A9469F760957095809590959B01AC01B3
:1012B000BD01CF010895AA1BBB1B51E107C0AA1FA6
:1012C000BB1FA617B70710F0A61BB70B881F991FE7
:1012D0005A95A9F780959095BC01CD010895EE0F20
:0E12E000FF1F0590F491E02D0994F894FFCFC4
:1012EE000100000000000000010000000040013677
:1012FE0001FE00EB00DC00DB000000010002000339
:0A130E00001700180019001A000073
:00000001FF
